{
  "_format": "hh-sol-artifact-1",
  "contractName": "ERC1155Store",
  "sourceName": "contracts/ERC1155Store.sol",
  "abi": [
    {
      "inputs": [
        {
          "internalType": "string",
          "name": "contract_uri",
          "type": "string"
        },
        {
          "internalType": "string",
          "name": "token_uri",
          "type": "string"
        },
        {
          "internalType": "contract IERC20Burnable",
          "name": "token",
          "type": "address"
        },
        {
          "internalType": "address",
          "name": "admin",
          "type": "address"
        }
      ],
      "stateMutability": "nonpayable",
      "type": "constructor"
    },
    {
      "inputs": [],
      "name": "InvalidCall",
      "type": "error"
    },
    {
      "anonymous": false,
      "inputs": [
        {
          "indexed": true,
          "internalType": "address",
          "name": "account",
          "type": "address"
        },
        {
          "indexed": true,
          "internalType": "address",
          "name": "operator",
          "type": "address"
        },
        {
          "indexed": false,
          "internalType": "bool",
          "name": "approved",
          "type": "bool"
        }
      ],
      "name": "ApprovalForAll",
      "type": "event"
    },
    {
      "anonymous": false,
      "inputs": [
        {
          "indexed": true,
          "internalType": "address",
          "name": "previousOwner",
          "type": "address"
        },
        {
          "indexed": true,
          "internalType": "address",
          "name": "newOwner",
          "type": "address"
        }
      ],
      "name": "OwnershipTransferred",
      "type": "event"
    },
    {
      "anonymous": false,
      "inputs": [
        {
          "indexed": false,
          "internalType": "address",
          "name": "account",
          "type": "address"
        }
      ],
      "name": "Paused",
      "type": "event"
    },
    {
      "anonymous": false,
      "inputs": [
        {
          "indexed": true,
          "internalType": "bytes32",
          "name": "role",
          "type": "bytes32"
        },
        {
          "indexed": true,
          "internalType": "bytes32",
          "name": "previousAdminRole",
          "type": "bytes32"
        },
        {
          "indexed": true,
          "internalType": "bytes32",
          "name": "newAdminRole",
          "type": "bytes32"
        }
      ],
      "name": "RoleAdminChanged",
      "type": "event"
    },
    {
      "anonymous": false,
      "inputs": [
        {
          "indexed": true,
          "internalType": "bytes32",
          "name": "role",
          "type": "bytes32"
        },
        {
          "indexed": true,
          "internalType": "address",
          "name": "account",
          "type": "address"
        },
        {
          "indexed": true,
          "internalType": "address",
          "name": "sender",
          "type": "address"
        }
      ],
      "name": "RoleGranted",
      "type": "event"
    },
    {
      "anonymous": false,
      "inputs": [
        {
          "indexed": true,
          "internalType": "bytes32",
          "name": "role",
          "type": "bytes32"
        },
        {
          "indexed": true,
          "internalType": "address",
          "name": "account",
          "type": "address"
        },
        {
          "indexed": true,
          "internalType": "address",
          "name": "sender",
          "type": "address"
        }
      ],
      "name": "RoleRevoked",
      "type": "event"
    },
    {
      "anonymous": false,
      "inputs": [
        {
          "indexed": true,
          "internalType": "address",
          "name": "operator",
          "type": "address"
        },
        {
          "indexed": true,
          "internalType": "address",
          "name": "from",
          "type": "address"
        },
        {
          "indexed": true,
          "internalType": "address",
          "name": "to",
          "type": "address"
        },
        {
          "indexed": false,
          "internalType": "uint256[]",
          "name": "ids",
          "type": "uint256[]"
        },
        {
          "indexed": false,
          "internalType": "uint256[]",
          "name": "values",
          "type": "uint256[]"
        }
      ],
      "name": "TransferBatch",
      "type": "event"
    },
    {
      "anonymous": false,
      "inputs": [
        {
          "indexed": true,
          "internalType": "address",
          "name": "operator",
          "type": "address"
        },
        {
          "indexed": true,
          "internalType": "address",
          "name": "from",
          "type": "address"
        },
        {
          "indexed": true,
          "internalType": "address",
          "name": "to",
          "type": "address"
        },
        {
          "indexed": false,
          "internalType": "uint256",
          "name": "id",
          "type": "uint256"
        },
        {
          "indexed": false,
          "internalType": "uint256",
          "name": "value",
          "type": "uint256"
        }
      ],
      "name": "TransferSingle",
      "type": "event"
    },
    {
      "anonymous": false,
      "inputs": [
        {
          "indexed": false,
          "internalType": "string",
          "name": "value",
          "type": "string"
        },
        {
          "indexed": true,
          "internalType": "uint256",
          "name": "id",
          "type": "uint256"
        }
      ],
      "name": "URI",
      "type": "event"
    },
    {
      "anonymous": false,
      "inputs": [
        {
          "indexed": false,
          "internalType": "address",
          "name": "account",
          "type": "address"
        }
      ],
      "name": "Unpaused",
      "type": "event"
    },
    {
      "inputs": [],
      "name": "CURATOR_ROLE",
      "outputs": [
        {
          "internalType": "bytes32",
          "name": "",
          "type": "bytes32"
        }
      ],
      "stateMutability": "view",
      "type": "function"
    },
    {
      "inputs": [],
      "name": "DEFAULT_ADMIN_ROLE",
      "outputs": [
        {
          "internalType": "bytes32",
          "name": "",
          "type": "bytes32"
        }
      ],
      "stateMutability": "view",
      "type": "function"
    },
    {
      "inputs": [],
      "name": "FUNDER_ROLE",
      "outputs": [
        {
          "internalType": "bytes32",
          "name": "",
          "type": "bytes32"
        }
      ],
      "stateMutability": "view",
      "type": "function"
    },
    {
      "inputs": [],
      "name": "MINTER_ROLE",
      "outputs": [
        {
          "internalType": "bytes32",
          "name": "",
          "type": "bytes32"
        }
      ],
      "stateMutability": "view",
      "type": "function"
    },
    {
      "inputs": [],
      "name": "PAUSER_ROLE",
      "outputs": [
        {
          "internalType": "bytes32",
          "name": "",
          "type": "bytes32"
        }
      ],
      "stateMutability": "view",
      "type": "function"
    },
    {
      "inputs": [],
      "name": "TOKEN",
      "outputs": [
        {
          "internalType": "contract IERC20Burnable",
          "name": "",
          "type": "address"
        }
      ],
      "stateMutability": "view",
      "type": "function"
    },
    {
      "inputs": [
        {
          "internalType": "uint256",
          "name": "id",
          "type": "uint256"
        },
        {
          "internalType": "uint256",
          "name": "max",
          "type": "uint256"
        },
        {
          "internalType": "uint256",
          "name": "eth",
          "type": "uint256"
        },
        {
          "internalType": "uint256",
          "name": "token",
          "type": "uint256"
        }
      ],
      "name": "addToken",
      "outputs": [],
      "stateMutability": "nonpayable",
      "type": "function"
    },
    {
      "inputs": [
        {
          "internalType": "address",
          "name": "account",
          "type": "address"
        },
        {
          "internalType": "uint256",
          "name": "id",
          "type": "uint256"
        }
      ],
      "name": "balanceOf",
      "outputs": [
        {
          "internalType": "uint256",
          "name": "",
          "type": "uint256"
        }
      ],
      "stateMutability": "view",
      "type": "function"
    },
    {
      "inputs": [
        {
          "internalType": "address[]",
          "name": "accounts",
          "type": "address[]"
        },
        {
          "internalType": "uint256[]",
          "name": "ids",
          "type": "uint256[]"
        }
      ],
      "name": "balanceOfBatch",
      "outputs": [
        {
          "internalType": "uint256[]",
          "name": "",
          "type": "uint256[]"
        }
      ],
      "stateMutability": "view",
      "type": "function"
    },
    {
      "inputs": [
        {
          "internalType": "address",
          "name": "account",
          "type": "address"
        },
        {
          "internalType": "uint256",
          "name": "id",
          "type": "uint256"
        },
        {
          "internalType": "uint256",
          "name": "value",
          "type": "uint256"
        }
      ],
      "name": "burn",
      "outputs": [],
      "stateMutability": "nonpayable",
      "type": "function"
    },
    {
      "inputs": [
        {
          "internalType": "address",
          "name": "account",
          "type": "address"
        },
        {
          "internalType": "uint256[]",
          "name": "ids",
          "type": "uint256[]"
        },
        {
          "internalType": "uint256[]",
          "name": "values",
          "type": "uint256[]"
        }
      ],
      "name": "burnBatch",
      "outputs": [],
      "stateMutability": "nonpayable",
      "type": "function"
    },
    {
      "inputs": [
        {
          "internalType": "address",
          "name": "to",
          "type": "address"
        },
        {
          "internalType": "uint256",
          "name": "id",
          "type": "uint256"
        },
        {
          "internalType": "uint256",
          "name": "quantity",
          "type": "uint256"
        }
      ],
      "name": "buy",
      "outputs": [],
      "stateMutability": "payable",
      "type": "function"
    },
    {
      "inputs": [],
      "name": "contractURI",
      "outputs": [
        {
          "internalType": "string",
          "name": "",
          "type": "string"
        }
      ],
      "stateMutability": "view",
      "type": "function"
    },
    {
      "inputs": [
        {
          "internalType": "uint256",
          "name": "id",
          "type": "uint256"
        }
      ],
      "name": "ethPrice",
      "outputs": [
        {
          "internalType": "uint256",
          "name": "",
          "type": "uint256"
        }
      ],
      "stateMutability": "view",
      "type": "function"
    },
    {
      "inputs": [
        {
          "internalType": "uint256",
          "name": "id",
          "type": "uint256"
        }
      ],
      "name": "exists",
      "outputs": [
        {
          "internalType": "bool",
          "name": "",
          "type": "bool"
        }
      ],
      "stateMutability": "view",
      "type": "function"
    },
    {
      "inputs": [
        {
          "internalType": "bytes32",
          "name": "role",
          "type": "bytes32"
        }
      ],
      "name": "getRoleAdmin",
      "outputs": [
        {
          "internalType": "bytes32",
          "name": "",
          "type": "bytes32"
        }
      ],
      "stateMutability": "view",
      "type": "function"
    },
    {
      "inputs": [
        {
          "internalType": "bytes32",
          "name": "role",
          "type": "bytes32"
        },
        {
          "internalType": "address",
          "name": "account",
          "type": "address"
        }
      ],
      "name": "grantRole",
      "outputs": [],
      "stateMutability": "nonpayable",
      "type": "function"
    },
    {
      "inputs": [
        {
          "internalType": "bytes32",
          "name": "role",
          "type": "bytes32"
        },
        {
          "internalType": "address",
          "name": "account",
          "type": "address"
        }
      ],
      "name": "hasRole",
      "outputs": [
        {
          "internalType": "bool",
          "name": "",
          "type": "bool"
        }
      ],
      "stateMutability": "view",
      "type": "function"
    },
    {
      "inputs": [
        {
          "internalType": "address",
          "name": "account",
          "type": "address"
        },
        {
          "internalType": "address",
          "name": "operator",
          "type": "address"
        }
      ],
      "name": "isApprovedForAll",
      "outputs": [
        {
          "internalType": "bool",
          "name": "",
          "type": "bool"
        }
      ],
      "stateMutability": "view",
      "type": "function"
    },
    {
      "inputs": [
        {
          "internalType": "uint256",
          "name": "id",
          "type": "uint256"
        }
      ],
      "name": "maxSupply",
      "outputs": [
        {
          "internalType": "uint256",
          "name": "",
          "type": "uint256"
        }
      ],
      "stateMutability": "view",
      "type": "function"
    },
    {
      "inputs": [
        {
          "internalType": "address",
          "name": "to",
          "type": "address"
        },
        {
          "internalType": "uint256",
          "name": "id",
          "type": "uint256"
        },
        {
          "internalType": "uint256",
          "name": "quantity",
          "type": "uint256"
        }
      ],
      "name": "mint",
      "outputs": [],
      "stateMutability": "nonpayable",
      "type": "function"
    },
    {
      "inputs": [],
      "name": "name",
      "outputs": [
        {
          "internalType": "string",
          "name": "",
          "type": "string"
        }
      ],
      "stateMutability": "pure",
      "type": "function"
    },
    {
      "inputs": [],
      "name": "owner",
      "outputs": [
        {
          "internalType": "address",
          "name": "",
          "type": "address"
        }
      ],
      "stateMutability": "view",
      "type": "function"
    },
    {
      "inputs": [],
      "name": "pause",
      "outputs": [],
      "stateMutability": "nonpayable",
      "type": "function"
    },
    {
      "inputs": [],
      "name": "paused",
      "outputs": [
        {
          "internalType": "bool",
          "name": "",
          "type": "bool"
        }
      ],
      "stateMutability": "view",
      "type": "function"
    },
    {
      "inputs": [
        {
          "internalType": "address",
          "name": "to",
          "type": "address"
        },
        {
          "internalType": "uint256",
          "name": "id",
          "type": "uint256"
        },
        {
          "internalType": "uint256",
          "name": "quantity",
          "type": "uint256"
        },
        {
          "internalType": "bytes",
          "name": "voucher",
          "type": "bytes"
        }
      ],
      "name": "redeem",
      "outputs": [],
      "stateMutability": "nonpayable",
      "type": "function"
    },
    {
      "inputs": [
        {
          "internalType": "uint256",
          "name": "id",
          "type": "uint256"
        }
      ],
      "name": "remainingSupply",
      "outputs": [
        {
          "internalType": "uint256",
          "name": "",
          "type": "uint256"
        }
      ],
      "stateMutability": "view",
      "type": "function"
    },
    {
      "inputs": [],
      "name": "renounceOwnership",
      "outputs": [],
      "stateMutability": "nonpayable",
      "type": "function"
    },
    {
      "inputs": [
        {
          "internalType": "bytes32",
          "name": "role",
          "type": "bytes32"
        },
        {
          "internalType": "address",
          "name": "account",
          "type": "address"
        }
      ],
      "name": "renounceRole",
      "outputs": [],
      "stateMutability": "nonpayable",
      "type": "function"
    },
    {
      "inputs": [
        {
          "internalType": "bytes32",
          "name": "role",
          "type": "bytes32"
        },
        {
          "internalType": "address",
          "name": "account",
          "type": "address"
        }
      ],
      "name": "revokeRole",
      "outputs": [],
      "stateMutability": "nonpayable",
      "type": "function"
    },
    {
      "inputs": [
        {
          "internalType": "address",
          "name": "from",
          "type": "address"
        },
        {
          "internalType": "address",
          "name": "to",
          "type": "address"
        },
        {
          "internalType": "uint256[]",
          "name": "ids",
          "type": "uint256[]"
        },
        {
          "internalType": "uint256[]",
          "name": "amounts",
          "type": "uint256[]"
        },
        {
          "internalType": "bytes",
          "name": "data",
          "type": "bytes"
        }
      ],
      "name": "safeBatchTransferFrom",
      "outputs": [],
      "stateMutability": "nonpayable",
      "type": "function"
    },
    {
      "inputs": [
        {
          "internalType": "address",
          "name": "from",
          "type": "address"
        },
        {
          "internalType": "address",
          "name": "to",
          "type": "address"
        },
        {
          "internalType": "uint256",
          "name": "id",
          "type": "uint256"
        },
        {
          "internalType": "uint256",
          "name": "amount",
          "type": "uint256"
        },
        {
          "internalType": "bytes",
          "name": "data",
          "type": "bytes"
        }
      ],
      "name": "safeTransferFrom",
      "outputs": [],
      "stateMutability": "nonpayable",
      "type": "function"
    },
    {
      "inputs": [
        {
          "internalType": "address",
          "name": "operator",
          "type": "address"
        },
        {
          "internalType": "bool",
          "name": "approved",
          "type": "bool"
        }
      ],
      "name": "setApprovalForAll",
      "outputs": [],
      "stateMutability": "nonpayable",
      "type": "function"
    },
    {
      "inputs": [
        {
          "internalType": "address",
          "name": "to",
          "type": "address"
        },
        {
          "internalType": "uint256",
          "name": "id",
          "type": "uint256"
        },
        {
          "internalType": "uint256",
          "name": "quantity",
          "type": "uint256"
        }
      ],
      "name": "support",
      "outputs": [],
      "stateMutability": "payable",
      "type": "function"
    },
    {
      "inputs": [
        {
          "internalType": "bytes4",
          "name": "interfaceId",
          "type": "bytes4"
        }
      ],
      "name": "supportsInterface",
      "outputs": [
        {
          "internalType": "bool",
          "name": "",
          "type": "bool"
        }
      ],
      "stateMutability": "view",
      "type": "function"
    },
    {
      "inputs": [],
      "name": "symbol",
      "outputs": [
        {
          "internalType": "string",
          "name": "",
          "type": "string"
        }
      ],
      "stateMutability": "pure",
      "type": "function"
    },
    {
      "inputs": [
        {
          "internalType": "uint256",
          "name": "id",
          "type": "uint256"
        }
      ],
      "name": "tokenInfo",
      "outputs": [
        {
          "internalType": "uint256",
          "name": "max",
          "type": "uint256"
        },
        {
          "internalType": "uint256",
          "name": "eth",
          "type": "uint256"
        },
        {
          "internalType": "uint256",
          "name": "token",
          "type": "uint256"
        },
        {
          "internalType": "uint256",
          "name": "supply",
          "type": "uint256"
        }
      ],
      "stateMutability": "view",
      "type": "function"
    },
    {
      "inputs": [
        {
          "internalType": "uint256",
          "name": "id",
          "type": "uint256"
        }
      ],
      "name": "tokenPrice",
      "outputs": [
        {
          "internalType": "uint256",
          "name": "",
          "type": "uint256"
        }
      ],
      "stateMutability": "view",
      "type": "function"
    },
    {
      "inputs": [
        {
          "internalType": "uint256",
          "name": "id",
          "type": "uint256"
        }
      ],
      "name": "totalSupply",
      "outputs": [
        {
          "internalType": "uint256",
          "name": "",
          "type": "uint256"
        }
      ],
      "stateMutability": "view",
      "type": "function"
    },
    {
      "inputs": [],
      "name": "totalTokens",
      "outputs": [
        {
          "internalType": "uint256",
          "name": "",
          "type": "uint256"
        }
      ],
      "stateMutability": "view",
      "type": "function"
    },
    {
      "inputs": [
        {
          "internalType": "address",
          "name": "newOwner",
          "type": "address"
        }
      ],
      "name": "transferOwnership",
      "outputs": [],
      "stateMutability": "nonpayable",
      "type": "function"
    },
    {
      "inputs": [],
      "name": "unpause",
      "outputs": [],
      "stateMutability": "nonpayable",
      "type": "function"
    },
    {
      "inputs": [
        {
          "internalType": "string",
          "name": "newuri",
          "type": "string"
        }
      ],
      "name": "updateURI",
      "outputs": [],
      "stateMutability": "nonpayable",
      "type": "function"
    },
    {
      "inputs": [
        {
          "internalType": "uint256",
          "name": "id",
          "type": "uint256"
        }
      ],
      "name": "uri",
      "outputs": [
        {
          "internalType": "string",
          "name": "",
          "type": "string"
        }
      ],
      "stateMutability": "view",
      "type": "function"
    },
    {
      "inputs": [
        {
          "internalType": "address",
          "name": "recipient",
          "type": "address"
        }
      ],
      "name": "withdraw",
      "outputs": [],
      "stateMutability": "nonpayable",
      "type": "function"
    },
    {
      "inputs": [
        {
          "internalType": "contract IERC20",
          "name": "erc20",
          "type": "address"
        },
        {
          "internalType": "address",
          "name": "recipient",
          "type": "address"
        },
        {
          "internalType": "uint256",
          "name": "amount",
          "type": "uint256"
        }
      ],
      "name": "withdraw",
      "outputs": [],
      "stateMutability": "nonpayable",
      "type": "function"
    }
  ],
  "bytecode": "0x60a06040523480156200001157600080fd5b50604051620040f0380380620040f0833981016040819052620000349162000361565b826200004033620000bf565b600180556200004f816200010f565b506005805460ff1916905583516200006f90600a906020870190620001d5565b506200007d60008262000128565b620000a97f65d7a28e3265b37a6474929f336521b332c1681b933f6cb9f3376673440d862a8262000128565b506001600160a01b031660805250620004329050565b600080546001600160a01b038381166001600160a01b0319831681178455604051919092169283917f8be0079c531659141344cd1fd0a4f28419497f9722a3daafe3b4186f6b6457e09190a35050565b805162000124906004906020840190620001d5565b5050565b60008281526007602090815260408083206001600160a01b038516845290915290205462000124908390839060ff16620001245760008281526007602090815260408083206001600160a01b03851684529091529020805460ff19166001179055620001913390565b6001600160a01b0316816001600160a01b0316837f2f8788117e7eff1d82e926ec794901d17c78024a50270940304540a733656f0d60405160405180910390a45050565b828054620001e390620003f5565b90600052602060002090601f01602090048101928262000207576000855562000252565b82601f106200022257805160ff191683800117855562000252565b8280016001018555821562000252579182015b828111156200025257825182559160200191906001019062000235565b506200026092915062000264565b5090565b5b8082111562000260576000815560010162000265565b634e487b7160e01b600052604160045260246000fd5b600082601f830112620002a357600080fd5b81516001600160401b0380821115620002c057620002c06200027b565b604051601f8301601f19908116603f01168101908282118183101715620002eb57620002eb6200027b565b816040528381526020925086838588010111156200030857600080fd5b600091505b838210156200032c57858201830151818301840152908201906200030d565b838211156200033e5760008385830101525b9695505050505050565b6001600160a01b03811681146200035e57600080fd5b50565b600080600080608085870312156200037857600080fd5b84516001600160401b03808211156200039057600080fd5b6200039e8883890162000291565b95506020870151915080821115620003b557600080fd5b50620003c48782880162000291565b9350506040850151620003d78162000348565b6060860151909250620003ea8162000348565b939692955090935050565b600181811c908216806200040a57607f821691505b602082108114156200042c57634e487b7160e01b600052602260045260246000fd5b50919050565b608051613c9b62000455600039600081816105d8015261110e0152613c9b6000f3fe60806040526004361061027c5760003560e01c806382bfefc81161014f578063cc33c875116100c1578063e63ab1e91161007a578063e63ab1e914610867578063e8a3d4851461089b578063e985e9c5146108b0578063f242432a146108f9578063f2fde38b14610919578063f5298aca1461093957600080fd5b8063cc33c87514610753578063d4ddce8a14610793578063d5391393146107c3578063d547741f146107f7578063d620fb5414610817578063d9caed121461084757600080fd5b806395d89b411161011357806395d89b4114610692578063a217fddf146106be578063a22cb465146106d3578063a59ac6dd146106f3578063bd85b03914610706578063c30f4a5a1461073357600080fd5b806382bfefc8146105c65780638456cb5914610612578063869f7594146106275780638da5cb5b1461065457806391d148541461067257600080fd5b80633cf3e664116101f357806351cff8d9116101ac57806351cff8d9146105305780635c975abb146105505780636b20c45414610568578063715018a614610588578063776414561461059d5780637e1c0c09146105b057600080fd5b80633cf3e664146104475780633f4ba83a1461046757806347fda41a1461047c5780634a2cfb541461049c5780634e1273f4146104d05780634f558e79146104fd57600080fd5b8063156e29f611610245578063156e29f614610363578063248a9ca3146103835780632eb2c2d6146103b35780632f2ff15d146103d357806334aedecd146103f357806336568abe1461042757600080fd5b8062fdd58e1461028157806301ffc9a7146102b457806306fdde03146102e45780630e89341c1461032157806311a6314314610341575b600080fd5b34801561028d57600080fd5b506102a161029c366004612f6f565b610959565b6040519081526020015b60405180910390f35b3480156102c057600080fd5b506102d46102cf366004612fb1565b6109f2565b60405190151581526020016102ab565b3480156102f057600080fd5b5060408051808201909152600b81526a334c616e642053746f726560a81b60208201525b6040516102ab9190613026565b34801561032d57600080fd5b5061031461033c366004613039565b610a03565b34801561034d57600080fd5b5061036161035c366004613052565b610a72565b005b34801561036f57600080fd5b5061036161037e366004613084565b610b11565b34801561038f57600080fd5b506102a161039e366004613039565b60009081526007602052604090206001015490565b3480156103bf57600080fd5b506103616103ce36600461320c565b610b4d565b3480156103df57600080fd5b506103616103ee3660046132b9565b610be4565b3480156103ff57600080fd5b506102a17f0914bb97ca83e85ef385857d9d418f187ff630589e0c9f44db92976d8e4519cb81565b34801561043357600080fd5b506103616104423660046132b9565b610c0f565b34801561045357600080fd5b506103616104623660046132e9565b610c8d565b34801561047357600080fd5b50610361610dc0565b34801561048857600080fd5b506102a1610497366004613039565b610df6565b3480156104a857600080fd5b506102a17f850d585eb7f024ccee5e68e55f2c26cc72e1e6ee456acf62135757a5eb9d4a1081565b3480156104dc57600080fd5b506104f06104eb36600461334b565b610e43565b6040516102ab9190613452565b34801561050957600080fd5b506102d4610518366004613039565b60009081526009602052604090206003015460ff1690565b34801561053c57600080fd5b5061036161054b366004613465565b610f6c565b34801561055c57600080fd5b5060055460ff166102d4565b34801561057457600080fd5b50610361610583366004613482565b610fd1565b34801561059457600080fd5b50610361611014565b6103616105ab366004613084565b61107a565b3480156105bc57600080fd5b506102a160085481565b3480156105d257600080fd5b506105fa7f000000000000000000000000000000000000000000000000000000000000000081565b6040516001600160a01b0390911681526020016102ab565b34801561061e57600080fd5b50610361611175565b34801561063357600080fd5b506102a1610642366004613039565b60009081526009602052604090205490565b34801561066057600080fd5b506000546001600160a01b03166105fa565b34801561067e57600080fd5b506102d461068d3660046132b9565b6111a8565b34801561069e57600080fd5b50604080518082019091526003815262334c5360e81b6020820152610314565b3480156106ca57600080fd5b506102a1600081565b3480156106df57600080fd5b506103616106ee366004613505565b6111d3565b610361610701366004613084565b6111de565b34801561071257600080fd5b506102a1610721366004613039565b60009081526006602052604090205490565b34801561073f57600080fd5b5061036161074e366004613533565b611258565b34801561075f57600080fd5b5061077361076e366004613039565b61128c565b6040805194855260208501939093529183015260608201526080016102ab565b34801561079f57600080fd5b506102a16107ae366004613039565b60009081526009602052604090206002015490565b3480156107cf57600080fd5b506102a17f9f2df0fed2c77648de5860a4cc508cd0818c85b8b8a1ab4ceeef8d981c8956a681565b34801561080357600080fd5b506103616108123660046132b9565b6112d5565b34801561082357600080fd5b506102a1610832366004613039565b60009081526009602052604090206001015490565b34801561085357600080fd5b5061036161086236600461357b565b6112fb565b34801561087357600080fd5b506102a17f65d7a28e3265b37a6474929f336521b332c1681b933f6cb9f3376673440d862a81565b3480156108a757600080fd5b50610314611359565b3480156108bc57600080fd5b506102d46108cb3660046135bc565b6001600160a01b03918216600090815260036020908152604080832093909416825291909152205460ff1690565b34801561090557600080fd5b506103616109143660046135ea565b6113eb565b34801561092557600080fd5b50610361610934366004613465565b611430565b34801561094557600080fd5b50610361610954366004613084565b6114f8565b60006001600160a01b0383166109ca5760405162461bcd60e51b815260206004820152602b60248201527f455243313135353a2062616c616e636520717565727920666f7220746865207a60448201526a65726f206164647265737360a81b60648201526084015b60405180910390fd5b5060009081526002602090815260408083206001600160a01b03949094168352929052205490565b60006109fd8261153b565b92915050565b60008181526009602052604090206003015460609060ff1615610a5957610a2982611560565b610a32836115f4565b604051602001610a43929190613652565b6040516020818303038152906040529050919050565b610a6282611560565b604051602001610a4391906136a0565b7f850d585eb7f024ccee5e68e55f2c26cc72e1e6ee456acf62135757a5eb9d4a10610a9d81336116f9565b60408051608081018252858152602080820186815282840186815260016060850181815260008c815260099095529584209451855591519184019190915551600283015591516003909101805460ff19169115159190911790556008805491610b05836136e4565b91905055505050505050565b7f9f2df0fed2c77648de5860a4cc508cd0818c85b8b8a1ab4ceeef8d981c8956a6610b3c81336116f9565b610b4784848461175d565b50505050565b6001600160a01b038516331480610b695750610b6985336108cb565b610bd05760405162461bcd60e51b815260206004820152603260248201527f455243313135353a207472616e736665722063616c6c6572206973206e6f74206044820152711bdddb995c881b9bdc88185c1c1c9bdd995960721b60648201526084016109c1565b610bdd8585858585611801565b5050505050565b600082815260076020526040902060010154610c0081336116f9565b610c0a83836119ae565b505050565b6001600160a01b0381163314610c7f5760405162461bcd60e51b815260206004820152602f60248201527f416363657373436f6e74726f6c3a2063616e206f6e6c792072656e6f756e636560448201526e103937b632b9903337b91039b2b63360891b60648201526084016109c1565b610c898282611a34565b5050565b60026001541415610cb05760405162461bcd60e51b81526004016109c1906136ff565b60026001556040516572656465656d60d01b60208201526bffffffffffffffffffffffff19606086901b166026820152603a8101849052605a8101839052610d8e907f9f2df0fed2c77648de5860a4cc508cd0818c85b8b8a1ab4ceeef8d981c8956a69061068d90610d8890607a01604051602081830303815290604052805190602001206040517f19457468657265756d205369676e6564204d6573736167653a0a3332000000006020820152603c8101829052600090605c01604051602081830303815290604052805190602001209050919050565b84611a9b565b610dab5760405163574b16a760e11b815260040160405180910390fd5b610db684848461175d565b5050600180555050565b7f65d7a28e3265b37a6474929f336521b332c1681b933f6cb9f3376673440d862a610deb81336116f9565b610df3611ab7565b50565b60008181526009602052604081205480610e235760405163574b16a760e11b815260040160405180910390fd5b600083815260066020526040902054610e3c9082613736565b9392505050565b60608151835114610ea85760405162461bcd60e51b815260206004820152602960248201527f455243313135353a206163636f756e747320616e6420696473206c656e677468604482015268040dad2e6dac2e8c6d60bb1b60648201526084016109c1565b600083516001600160401b03811115610ec357610ec36130b9565b604051908082528060200260200182016040528015610eec578160200160208202803683370190505b50905060005b8451811015610f6457610f37858281518110610f1057610f1061374d565b6020026020010151858381518110610f2a57610f2a61374d565b6020026020010151610959565b828281518110610f4957610f4961374d565b6020908102919091010152610f5d816136e4565b9050610ef2565b509392505050565b60026001541415610f8f5760405162461bcd60e51b81526004016109c1906136ff565b60026001557f0914bb97ca83e85ef385857d9d418f187ff630589e0c9f44db92976d8e4519cb610fbf81336116f9565b610fc98247611b4a565b505060018055565b6001600160a01b038316331480610fed5750610fed83336108cb565b6110095760405162461bcd60e51b81526004016109c190613763565b610c0a838383611c63565b6000546001600160a01b0316331461106e5760405162461bcd60e51b815260206004820181905260248201527f4f776e61626c653a2063616c6c6572206973206e6f7420746865206f776e657260448201526064016109c1565b6110786000611df4565b565b6002600154141561109d5760405162461bcd60e51b81526004016109c1906136ff565b60026001556000816110be8460009081526009602052604090206002015490565b6110c891906137ac565b9050806110e85760405163574b16a760e11b815260040160405180910390fd5b60405163079cc67960e41b81526001600160a01b038581166004830152602482018390527f000000000000000000000000000000000000000000000000000000000000000016906379cc679090604401600060405180830381600087803b15801561115257600080fd5b505af1158015611166573d6000803e3d6000fd5b50505050610db684848461175d565b7f65d7a28e3265b37a6474929f336521b332c1681b933f6cb9f3376673440d862a6111a081336116f9565b610df3611e44565b60009182526007602090815260408084206001600160a01b0393909316845291905290205460ff1690565b610c89338383611ebf565b600260015414156112015760405162461bcd60e51b81526004016109c1906136ff565b60026001556000816112228460009081526009602052604090206001015490565b61122c91906137ac565b905080158061123a57508034105b15610dab5760405163574b16a760e11b815260040160405180910390fd5b7f850d585eb7f024ccee5e68e55f2c26cc72e1e6ee456acf62135757a5eb9d4a1061128381336116f9565b610c8982611fa0565b6000818152600960205260408120805460018201546002909201548392839283929091906112c68860009081526006602052604090205490565b93509350935093509193509193565b6000828152600760205260409020600101546112f181336116f9565b610c0a8383611a34565b6002600154141561131e5760405162461bcd60e51b81526004016109c1906136ff565b60026001557f0914bb97ca83e85ef385857d9d418f187ff630589e0c9f44db92976d8e4519cb61134e81336116f9565b610db6848484611fb3565b6060600a8054611368906137cb565b80601f0160208091040260200160405190810160405280929190818152602001828054611394906137cb565b80156113e15780601f106113b6576101008083540402835291602001916113e1565b820191906000526020600020905b8154815290600101906020018083116113c457829003601f168201915b5050505050905090565b6001600160a01b038516331480611407575061140785336108cb565b6114235760405162461bcd60e51b81526004016109c190613763565b610bdd8585858585612005565b6000546001600160a01b0316331461148a5760405162461bcd60e51b815260206004820181905260248201527f4f776e61626c653a2063616c6c6572206973206e6f7420746865206f776e657260448201526064016109c1565b6001600160a01b0381166114ef5760405162461bcd60e51b815260206004820152602660248201527f4f776e61626c653a206e6577206f776e657220697320746865207a65726f206160448201526564647265737360d01b60648201526084016109c1565b610df381611df4565b6001600160a01b038316331480611514575061151483336108cb565b6115305760405162461bcd60e51b81526004016109c190613763565b610c0a838383612135565b60006001600160e01b03198216637965db0b60e01b14806109fd57506109fd8261223a565b60606004805461156f906137cb565b80601f016020809104026020016040519081016040528092919081815260200182805461159b906137cb565b80156115e85780601f106115bd576101008083540402835291602001916115e8565b820191906000526020600020905b8154815290600101906020018083116115cb57829003601f168201915b50505050509050919050565b6060816116185750506040805180820190915260018152600360fc1b602082015290565b8160005b8115611642578061162c816136e4565b915061163b9050600a8361381c565b915061161c565b6000816001600160401b0381111561165c5761165c6130b9565b6040519080825280601f01601f191660200182016040528015611686576020820181803683370190505b5090505b84156116f15761169b600183613736565b91506116a8600a86613830565b6116b3906030613844565b60f81b8183815181106116c8576116c861374d565b60200101906001600160f81b031916908160001a9053506116ea600a8661381c565b945061168a565b949350505050565b61170382826111a8565b610c895761171b816001600160a01b0316601461228a565b61172683602061228a565b60405160200161173792919061385c565b60408051601f198184030181529082905262461bcd60e51b82526109c191600401613026565b60008281526009602052604090206003015460ff1661178f5760405163574b16a760e11b815260040160405180910390fd5b60008281526009602090815260408083205460069092528220549091906117b7908490613844565b90506000821180156117c857508181115b156117e65760405163574b16a760e11b815260040160405180910390fd5b610bdd85858560405180602001604052806000815250612425565b81518351146118225760405162461bcd60e51b81526004016109c1906138d1565b6001600160a01b0384166118485760405162461bcd60e51b81526004016109c190613919565b33611857818787878787612528565b60005b84518110156119405760008582815181106118775761187761374d565b6020026020010151905060008583815181106118955761189561374d565b60209081029190910181015160008481526002835260408082206001600160a01b038e1683529093529190912054909150818110156118e65760405162461bcd60e51b81526004016109c19061395e565b60008381526002602090815260408083206001600160a01b038e8116855292528083208585039055908b16825281208054849290611925908490613844565b9250508190555050505080611939906136e4565b905061185a565b50846001600160a01b0316866001600160a01b0316826001600160a01b03167f4a39dc06d4c0dbc64b70af90fd698a233a518aa5d07e595d983b8c0526c8f7fb87876040516119909291906139a8565b60405180910390a46119a6818787878787612536565b505050505050565b6119b882826111a8565b610c895760008281526007602090815260408083206001600160a01b03851684529091529020805460ff191660011790556119f03390565b6001600160a01b0316816001600160a01b0316837f2f8788117e7eff1d82e926ec794901d17c78024a50270940304540a733656f0d60405160405180910390a45050565b611a3e82826111a8565b15610c895760008281526007602090815260408083206001600160a01b0385168085529252808320805460ff1916905551339285917ff6391f5c32d9c69d2a47ea670b442974b53935d1edc7fd64eb21e047a839171b9190a45050565b6000806000611aaa85856126a1565b91509150610f6481612711565b60055460ff16611b005760405162461bcd60e51b815260206004820152601460248201527314185d5cd8589b194e881b9bdd081c185d5cd95960621b60448201526064016109c1565b6005805460ff191690557f5db9ee0a495bf2e6ff9c91a7834c1ba4fdd244a5e8aa4e537bd38aeae4b073aa335b6040516001600160a01b03909116815260200160405180910390a1565b80471015611b9a5760405162461bcd60e51b815260206004820152601d60248201527f416464726573733a20696e73756666696369656e742062616c616e636500000060448201526064016109c1565b6000826001600160a01b03168260405160006040518083038185875af1925050503d8060008114611be7576040519150601f19603f3d011682016040523d82523d6000602084013e611bec565b606091505b5050905080610c0a5760405162461bcd60e51b815260206004820152603a60248201527f416464726573733a20756e61626c6520746f2073656e642076616c75652c207260448201527f6563697069656e74206d6179206861766520726576657274656400000000000060648201526084016109c1565b6001600160a01b038316611c895760405162461bcd60e51b81526004016109c1906139d6565b8051825114611caa5760405162461bcd60e51b81526004016109c1906138d1565b6000339050611ccd81856000868660405180602001604052806000815250612528565b60005b8351811015611d95576000848281518110611ced57611ced61374d565b602002602001015190506000848381518110611d0b57611d0b61374d565b60209081029190910181015160008481526002835260408082206001600160a01b038c168352909352919091205490915081811015611d5c5760405162461bcd60e51b81526004016109c190613a19565b60009283526002602090815260408085206001600160a01b038b1686529091529092209103905580611d8d816136e4565b915050611cd0565b5060006001600160a01b0316846001600160a01b0316826001600160a01b03167f4a39dc06d4c0dbc64b70af90fd698a233a518aa5d07e595d983b8c0526c8f7fb8686604051611de69291906139a8565b60405180910390a450505050565b600080546001600160a01b038381166001600160a01b0319831681178455604051919092169283917f8be0079c531659141344cd1fd0a4f28419497f9722a3daafe3b4186f6b6457e09190a35050565b60055460ff1615611e8a5760405162461bcd60e51b815260206004820152601060248201526f14185d5cd8589b194e881c185d5cd95960821b60448201526064016109c1565b6005805460ff191660011790557f62e78cea01bee320cd4e420270b5ea74000d11b0c9f74754ebdbfc544b05a258611b2d3390565b816001600160a01b0316836001600160a01b03161415611f335760405162461bcd60e51b815260206004820152602960248201527f455243313135353a2073657474696e6720617070726f76616c20737461747573604482015268103337b91039b2b63360b91b60648201526084016109c1565b6001600160a01b03838116600081815260036020908152604080832094871680845294825291829020805460ff191686151590811790915591519182527f17307eab39ab6107e8899845ad3d59bd9653f200f220920489ca2b5937696c31910160405180910390a3505050565b8051610c89906004906020840190612ec1565b604080516001600160a01b038416602482015260448082018490528251808303909101815260649091019091526020810180516001600160e01b031663a9059cbb60e01b179052610c0a9084906128cc565b6001600160a01b03841661202b5760405162461bcd60e51b81526004016109c190613919565b3361204a81878761203b8861299e565b6120448861299e565b87612528565b60008481526002602090815260408083206001600160a01b038a1684529091529020548381101561208d5760405162461bcd60e51b81526004016109c19061395e565b60008581526002602090815260408083206001600160a01b038b81168552925280832087850390559088168252812080548692906120cc908490613844565b909155505060408051868152602081018690526001600160a01b03808916928a821692918616917fc3d58168c5ae7397731d063d5bbf3d657854427343f4c083240f7aacaa2d0f62910160405180910390a461212c8288888888886129e9565b50505050505050565b6001600160a01b03831661215b5760405162461bcd60e51b81526004016109c1906139d6565b3361218a8185600061216c8761299e565b6121758761299e565b60405180602001604052806000815250612528565b60008381526002602090815260408083206001600160a01b0388168452909152902054828110156121cd5760405162461bcd60e51b81526004016109c190613a19565b60008481526002602090815260408083206001600160a01b03898116808652918452828520888703905582518981529384018890529092908616917fc3d58168c5ae7397731d063d5bbf3d657854427343f4c083240f7aacaa2d0f62910160405180910390a45050505050565b60006001600160e01b03198216636cdb3d1360e11b148061226b57506001600160e01b031982166303a24d0760e21b145b806109fd57506301ffc9a760e01b6001600160e01b03198316146109fd565b606060006122998360026137ac565b6122a4906002613844565b6001600160401b038111156122bb576122bb6130b9565b6040519080825280601f01601f1916602001820160405280156122e5576020820181803683370190505b509050600360fc1b816000815181106123005761230061374d565b60200101906001600160f81b031916908160001a905350600f60fb1b8160018151811061232f5761232f61374d565b60200101906001600160f81b031916908160001a90535060006123538460026137ac565b61235e906001613844565b90505b60018111156123d6576f181899199a1a9b1b9c1cb0b131b232b360811b85600f16601081106123925761239261374d565b1a60f81b8282815181106123a8576123a861374d565b60200101906001600160f81b031916908160001a90535060049490941c936123cf81613a5d565b9050612361565b508315610e3c5760405162461bcd60e51b815260206004820181905260248201527f537472696e67733a20686578206c656e67746820696e73756666696369656e7460448201526064016109c1565b6001600160a01b0384166124855760405162461bcd60e51b815260206004820152602160248201527f455243313135353a206d696e7420746f20746865207a65726f206164647265736044820152607360f81b60648201526084016109c1565b336124968160008761203b8861299e565b60008481526002602090815260408083206001600160a01b0389168452909152812080548592906124c8908490613844565b909155505060408051858152602081018590526001600160a01b0380881692600092918516917fc3d58168c5ae7397731d063d5bbf3d657854427343f4c083240f7aacaa2d0f62910160405180910390a4610bdd816000878787876129e9565b6119a6868686868686612ab3565b6001600160a01b0384163b156119a65760405163bc197c8160e01b81526001600160a01b0385169063bc197c819061257a9089908990889088908890600401613a74565b602060405180830381600087803b15801561259457600080fd5b505af19250505080156125c4575060408051601f3d908101601f191682019092526125c191810190613ad2565b60015b612671576125d0613aef565b806308c379a0141561260a57506125e5613b0b565b806125f0575061260c565b8060405162461bcd60e51b81526004016109c19190613026565b505b60405162461bcd60e51b815260206004820152603460248201527f455243313135353a207472616e7366657220746f206e6f6e20455243313135356044820152732932b1b2b4bb32b91034b6b83632b6b2b73a32b960611b60648201526084016109c1565b6001600160e01b0319811663bc197c8160e01b1461212c5760405162461bcd60e51b81526004016109c190613b94565b6000808251604114156126d85760208301516040840151606085015160001a6126cc87828585612bcd565b9450945050505061270a565b82516040141561270257602083015160408401516126f7868383612cba565b93509350505061270a565b506000905060025b9250929050565b600081600481111561272557612725613bdc565b141561272e5750565b600181600481111561274257612742613bdc565b14156127905760405162461bcd60e51b815260206004820152601860248201527f45434453413a20696e76616c6964207369676e6174757265000000000000000060448201526064016109c1565b60028160048111156127a4576127a4613bdc565b14156127f25760405162461bcd60e51b815260206004820152601f60248201527f45434453413a20696e76616c6964207369676e6174757265206c656e6774680060448201526064016109c1565b600381600481111561280657612806613bdc565b141561285f5760405162461bcd60e51b815260206004820152602260248201527f45434453413a20696e76616c6964207369676e6174757265202773272076616c604482015261756560f01b60648201526084016109c1565b600481600481111561287357612873613bdc565b1415610df35760405162461bcd60e51b815260206004820152602260248201527f45434453413a20696e76616c6964207369676e6174757265202776272076616c604482015261756560f01b60648201526084016109c1565b6000612921826040518060400160405280602081526020017f5361666545524332303a206c6f772d6c6576656c2063616c6c206661696c6564815250856001600160a01b0316612ce99092919063ffffffff16565b805190915015610c0a578080602001905181019061293f9190613bf2565b610c0a5760405162461bcd60e51b815260206004820152602a60248201527f5361666545524332303a204552433230206f7065726174696f6e20646964206e6044820152691bdd081cdd58d8d9595960b21b60648201526084016109c1565b604080516001808252818301909252606091600091906020808301908036833701905050905082816000815181106129d8576129d861374d565b602090810291909101015292915050565b6001600160a01b0384163b156119a65760405163f23a6e6160e01b81526001600160a01b0385169063f23a6e6190612a2d9089908990889088908890600401613c0f565b602060405180830381600087803b158015612a4757600080fd5b505af1925050508015612a77575060408051601f3d908101601f19168201909252612a7491810190613ad2565b60015b612a83576125d0613aef565b6001600160e01b0319811663f23a6e6160e01b1461212c5760405162461bcd60e51b81526004016109c190613b94565b612ac1868686868686612cf8565b6001600160a01b038516612b485760005b8351811015612b4657828181518110612aed57612aed61374d565b602002602001015160066000868481518110612b0b57612b0b61374d565b602002602001015181526020019081526020016000206000828254612b309190613844565b90915550612b3f9050816136e4565b9050612ad2565b505b6001600160a01b0384166119a65760005b835181101561212c57828181518110612b7457612b7461374d565b602002602001015160066000868481518110612b9257612b9261374d565b602002602001015181526020019081526020016000206000828254612bb79190613736565b90915550612bc69050816136e4565b9050612b59565b6000807f7fffffffffffffffffffffffffffffff5d576e7357a4501ddfe92f46681b20a0831115612c045750600090506003612cb1565b8460ff16601b14158015612c1c57508460ff16601c14155b15612c2d5750600090506004612cb1565b6040805160008082526020820180845289905260ff881692820192909252606081018690526080810185905260019060a0016020604051602081039080840390855afa158015612c81573d6000803e3d6000fd5b5050604051601f1901519150506001600160a01b038116612caa57600060019250925050612cb1565b9150600090505b94509492505050565b6000806001600160ff1b03831660ff84901c601b01612cdb87828885612bcd565b935093505050935093915050565b60606116f18484600085612d60565b60055460ff16156119a65760405162461bcd60e51b815260206004820152602c60248201527f455243313135355061757361626c653a20746f6b656e207472616e736665722060448201526b1dda1a5b19481c185d5cd95960a21b60648201526084016109c1565b606082471015612dc15760405162461bcd60e51b815260206004820152602660248201527f416464726573733a20696e73756666696369656e742062616c616e636520666f6044820152651c8818d85b1b60d21b60648201526084016109c1565b843b612e0f5760405162461bcd60e51b815260206004820152601d60248201527f416464726573733a2063616c6c20746f206e6f6e2d636f6e747261637400000060448201526064016109c1565b600080866001600160a01b03168587604051612e2b9190613c49565b60006040518083038185875af1925050503d8060008114612e68576040519150601f19603f3d011682016040523d82523d6000602084013e612e6d565b606091505b5091509150612e7d828286612e88565b979650505050505050565b60608315612e97575081610e3c565b825115612ea75782518084602001fd5b8160405162461bcd60e51b81526004016109c19190613026565b828054612ecd906137cb565b90600052602060002090601f016020900481019282612eef5760008555612f35565b82601f10612f0857805160ff1916838001178555612f35565b82800160010185558215612f35579182015b82811115612f35578251825591602001919060010190612f1a565b50612f41929150612f45565b5090565b5b80821115612f415760008155600101612f46565b6001600160a01b0381168114610df357600080fd5b60008060408385031215612f8257600080fd5b8235612f8d81612f5a565b946020939093013593505050565b6001600160e01b031981168114610df357600080fd5b600060208284031215612fc357600080fd5b8135610e3c81612f9b565b60005b83811015612fe9578181015183820152602001612fd1565b83811115610b475750506000910152565b60008151808452613012816020860160208601612fce565b601f01601f19169290920160200192915050565b602081526000610e3c6020830184612ffa565b60006020828403121561304b57600080fd5b5035919050565b6000806000806080858703121561306857600080fd5b5050823594602084013594506040840135936060013592509050565b60008060006060848603121561309957600080fd5b83356130a481612f5a565b95602085013595506040909401359392505050565b634e487b7160e01b600052604160045260246000fd5b601f8201601f191681016001600160401b03811182821017156130f4576130f46130b9565b6040525050565b60006001600160401b03821115613114576131146130b9565b5060051b60200190565b600082601f83011261312f57600080fd5b8135602061313c826130fb565b60405161314982826130cf565b83815260059390931b850182019282810191508684111561316957600080fd5b8286015b84811015613184578035835291830191830161316d565b509695505050505050565b60006001600160401b038311156131a8576131a86130b9565b6040516131bf601f8501601f1916602001826130cf565b8091508381528484840111156131d457600080fd5b83836020830137600060208583010152509392505050565b600082601f8301126131fd57600080fd5b610e3c8383356020850161318f565b600080600080600060a0868803121561322457600080fd5b853561322f81612f5a565b9450602086013561323f81612f5a565b935060408601356001600160401b038082111561325b57600080fd5b61326789838a0161311e565b9450606088013591508082111561327d57600080fd5b61328989838a0161311e565b9350608088013591508082111561329f57600080fd5b506132ac888289016131ec565b9150509295509295909350565b600080604083850312156132cc57600080fd5b8235915060208301356132de81612f5a565b809150509250929050565b600080600080608085870312156132ff57600080fd5b843561330a81612f5a565b9350602085013592506040850135915060608501356001600160401b0381111561333357600080fd5b61333f878288016131ec565b91505092959194509250565b6000806040838503121561335e57600080fd5b82356001600160401b038082111561337557600080fd5b818501915085601f83011261338957600080fd5b81356020613396826130fb565b6040516133a382826130cf565b83815260059390931b85018201928281019150898411156133c357600080fd5b948201945b838610156133ea5785356133db81612f5a565b825294820194908201906133c8565b9650508601359250508082111561340057600080fd5b5061340d8582860161311e565b9150509250929050565b600081518084526020808501945080840160005b838110156134475781518752958201959082019060010161342b565b509495945050505050565b602081526000610e3c6020830184613417565b60006020828403121561347757600080fd5b8135610e3c81612f5a565b60008060006060848603121561349757600080fd5b83356134a281612f5a565b925060208401356001600160401b03808211156134be57600080fd5b6134ca8783880161311e565b935060408601359150808211156134e057600080fd5b506134ed8682870161311e565b9150509250925092565b8015158114610df357600080fd5b6000806040838503121561351857600080fd5b823561352381612f5a565b915060208301356132de816134f7565b60006020828403121561354557600080fd5b81356001600160401b0381111561355b57600080fd5b8201601f8101841361356c57600080fd5b6116f18482356020840161318f565b60008060006060848603121561359057600080fd5b833561359b81612f5a565b925060208401356135ab81612f5a565b929592945050506040919091013590565b600080604083850312156135cf57600080fd5b82356135da81612f5a565b915060208301356132de81612f5a565b600080600080600060a0868803121561360257600080fd5b853561360d81612f5a565b9450602086013561361d81612f5a565b9350604086013592506060860135915060808601356001600160401b0381111561364657600080fd5b6132ac888289016131ec565b60008351613664818460208801612fce565b602f60f81b9083019081528351613682816001840160208801612fce565b64173539b7b760d91b60019290910191820152600601949350505050565b600082516136b2818460208701612fce565b6917bdb4b23e973539b7b760b11b920191825250600a01919050565b634e487b7160e01b600052601160045260246000fd5b60006000198214156136f8576136f86136ce565b5060010190565b6020808252601f908201527f5265656e7472616e637947756172643a207265656e7472616e742063616c6c00604082015260600190565b600082821015613748576137486136ce565b500390565b634e487b7160e01b600052603260045260246000fd5b60208082526029908201527f455243313135353a2063616c6c6572206973206e6f74206f776e6572206e6f7260408201526808185c1c1c9bdd995960ba1b606082015260800190565b60008160001904831182151516156137c6576137c66136ce565b500290565b600181811c908216806137df57607f821691505b6020821081141561380057634e487b7160e01b600052602260045260246000fd5b50919050565b634e487b7160e01b600052601260045260246000fd5b60008261382b5761382b613806565b500490565b60008261383f5761383f613806565b500690565b60008219821115613857576138576136ce565b500190565b7f416363657373436f6e74726f6c3a206163636f756e7420000000000000000000815260008351613894816017850160208801612fce565b7001034b99036b4b9b9b4b733903937b6329607d1b60179184019182015283516138c5816028840160208801612fce565b01602801949350505050565b60208082526028908201527f455243313135353a2069647320616e6420616d6f756e7473206c656e677468206040820152670dad2e6dac2e8c6d60c31b606082015260800190565b60208082526025908201527f455243313135353a207472616e7366657220746f20746865207a65726f206164604082015264647265737360d81b606082015260800190565b6020808252602a908201527f455243313135353a20696e73756666696369656e742062616c616e636520666f60408201526939103a3930b739b332b960b11b606082015260800190565b6040815260006139bb6040830185613417565b82810360208401526139cd8185613417565b95945050505050565b60208082526023908201527f455243313135353a206275726e2066726f6d20746865207a65726f206164647260408201526265737360e81b606082015260800190565b60208082526024908201527f455243313135353a206275726e20616d6f756e7420657863656564732062616c604082015263616e636560e01b606082015260800190565b600081613a6c57613a6c6136ce565b506000190190565b6001600160a01b0386811682528516602082015260a060408201819052600090613aa090830186613417565b8281036060840152613ab28186613417565b90508281036080840152613ac68185612ffa565b98975050505050505050565b600060208284031215613ae457600080fd5b8151610e3c81612f9b565b600060033d1115613b085760046000803e5060005160e01c5b90565b600060443d1015613b195790565b6040516003193d81016004833e81513d6001600160401b038160248401118184111715613b4857505050505090565b8285019150815181811115613b605750505050505090565b843d8701016020828501011115613b7a5750505050505090565b613b89602082860101876130cf565b509095945050505050565b60208082526028908201527f455243313135353a204552433131353552656365697665722072656a656374656040820152676420746f6b656e7360c01b606082015260800190565b634e487b7160e01b600052602160045260246000fd5b600060208284031215613c0457600080fd5b8151610e3c816134f7565b6001600160a01b03868116825285166020820152604081018490526060810183905260a060808201819052600090612e7d90830184612ffa565b60008251613c5b818460208701612fce565b919091019291505056fea2646970667358221220c6b438f4cbee13bb32a2d0b49a3390b66b24bdb57413f1c5667a4bd8c220a4c064736f6c63430008090033",
  "linkReferences": {},
  "deployedLinkReferences": {}
}