{
  "_format": "hh-sol-artifact-1",
  "contractName": "ERC20Soulbound",
  "sourceName": "contracts/ERC20Soulbound.sol",
  "abi": [
    {
      "inputs": [
        {
          "internalType": "address",
          "name": "admin",
          "type": "address"
        }
      ],
      "stateMutability": "nonpayable",
      "type": "constructor"
    },
    {
      "inputs": [],
      "name": "InvalidCall",
      "type": "error"
    },
    {
      "anonymous": false,
      "inputs": [
        {
          "indexed": true,
          "internalType": "address",
          "name": "owner",
          "type": "address"
        },
        {
          "indexed": true,
          "internalType": "address",
          "name": "spender",
          "type": "address"
        },
        {
          "indexed": false,
          "internalType": "uint256",
          "name": "value",
          "type": "uint256"
        }
      ],
      "name": "Approval",
      "type": "event"
    },
    {
      "anonymous": false,
      "inputs": [
        {
          "indexed": false,
          "internalType": "address",
          "name": "account",
          "type": "address"
        }
      ],
      "name": "Paused",
      "type": "event"
    },
    {
      "anonymous": false,
      "inputs": [
        {
          "indexed": true,
          "internalType": "bytes32",
          "name": "role",
          "type": "bytes32"
        },
        {
          "indexed": true,
          "internalType": "bytes32",
          "name": "previousAdminRole",
          "type": "bytes32"
        },
        {
          "indexed": true,
          "internalType": "bytes32",
          "name": "newAdminRole",
          "type": "bytes32"
        }
      ],
      "name": "RoleAdminChanged",
      "type": "event"
    },
    {
      "anonymous": false,
      "inputs": [
        {
          "indexed": true,
          "internalType": "bytes32",
          "name": "role",
          "type": "bytes32"
        },
        {
          "indexed": true,
          "internalType": "address",
          "name": "account",
          "type": "address"
        },
        {
          "indexed": true,
          "internalType": "address",
          "name": "sender",
          "type": "address"
        }
      ],
      "name": "RoleGranted",
      "type": "event"
    },
    {
      "anonymous": false,
      "inputs": [
        {
          "indexed": true,
          "internalType": "bytes32",
          "name": "role",
          "type": "bytes32"
        },
        {
          "indexed": true,
          "internalType": "address",
          "name": "account",
          "type": "address"
        },
        {
          "indexed": true,
          "internalType": "address",
          "name": "sender",
          "type": "address"
        }
      ],
      "name": "RoleRevoked",
      "type": "event"
    },
    {
      "anonymous": false,
      "inputs": [
        {
          "indexed": true,
          "internalType": "address",
          "name": "from",
          "type": "address"
        },
        {
          "indexed": true,
          "internalType": "address",
          "name": "to",
          "type": "address"
        },
        {
          "indexed": false,
          "internalType": "uint256",
          "name": "value",
          "type": "uint256"
        }
      ],
      "name": "Transfer",
      "type": "event"
    },
    {
      "anonymous": false,
      "inputs": [
        {
          "indexed": false,
          "internalType": "address",
          "name": "account",
          "type": "address"
        }
      ],
      "name": "Unpaused",
      "type": "event"
    },
    {
      "inputs": [],
      "name": "DEFAULT_ADMIN_ROLE",
      "outputs": [
        {
          "internalType": "bytes32",
          "name": "",
          "type": "bytes32"
        }
      ],
      "stateMutability": "view",
      "type": "function"
    },
    {
      "inputs": [
        {
          "internalType": "address",
          "name": "owner",
          "type": "address"
        },
        {
          "internalType": "address",
          "name": "spender",
          "type": "address"
        }
      ],
      "name": "allowance",
      "outputs": [
        {
          "internalType": "uint256",
          "name": "",
          "type": "uint256"
        }
      ],
      "stateMutability": "view",
      "type": "function"
    },
    {
      "inputs": [
        {
          "internalType": "address",
          "name": "spender",
          "type": "address"
        },
        {
          "internalType": "uint256",
          "name": "amount",
          "type": "uint256"
        }
      ],
      "name": "approve",
      "outputs": [
        {
          "internalType": "bool",
          "name": "",
          "type": "bool"
        }
      ],
      "stateMutability": "nonpayable",
      "type": "function"
    },
    {
      "inputs": [
        {
          "internalType": "address",
          "name": "account",
          "type": "address"
        }
      ],
      "name": "balanceOf",
      "outputs": [
        {
          "internalType": "uint256",
          "name": "",
          "type": "uint256"
        }
      ],
      "stateMutability": "view",
      "type": "function"
    },
    {
      "inputs": [
        {
          "internalType": "uint256",
          "name": "amount",
          "type": "uint256"
        }
      ],
      "name": "burn",
      "outputs": [],
      "stateMutability": "nonpayable",
      "type": "function"
    },
    {
      "inputs": [
        {
          "internalType": "address",
          "name": "account",
          "type": "address"
        },
        {
          "internalType": "uint256",
          "name": "amount",
          "type": "uint256"
        }
      ],
      "name": "burn",
      "outputs": [],
      "stateMutability": "nonpayable",
      "type": "function"
    },
    {
      "inputs": [],
      "name": "decimals",
      "outputs": [
        {
          "internalType": "uint8",
          "name": "",
          "type": "uint8"
        }
      ],
      "stateMutability": "view",
      "type": "function"
    },
    {
      "inputs": [
        {
          "internalType": "address",
          "name": "spender",
          "type": "address"
        },
        {
          "internalType": "uint256",
          "name": "subtractedValue",
          "type": "uint256"
        }
      ],
      "name": "decreaseAllowance",
      "outputs": [
        {
          "internalType": "bool",
          "name": "",
          "type": "bool"
        }
      ],
      "stateMutability": "nonpayable",
      "type": "function"
    },
    {
      "inputs": [
        {
          "internalType": "bytes32",
          "name": "role",
          "type": "bytes32"
        }
      ],
      "name": "getRoleAdmin",
      "outputs": [
        {
          "internalType": "bytes32",
          "name": "",
          "type": "bytes32"
        }
      ],
      "stateMutability": "view",
      "type": "function"
    },
    {
      "inputs": [
        {
          "internalType": "bytes32",
          "name": "role",
          "type": "bytes32"
        },
        {
          "internalType": "address",
          "name": "account",
          "type": "address"
        }
      ],
      "name": "grantRole",
      "outputs": [],
      "stateMutability": "nonpayable",
      "type": "function"
    },
    {
      "inputs": [
        {
          "internalType": "bytes32",
          "name": "role",
          "type": "bytes32"
        },
        {
          "internalType": "address",
          "name": "account",
          "type": "address"
        }
      ],
      "name": "hasRole",
      "outputs": [
        {
          "internalType": "bool",
          "name": "",
          "type": "bool"
        }
      ],
      "stateMutability": "view",
      "type": "function"
    },
    {
      "inputs": [
        {
          "internalType": "address",
          "name": "spender",
          "type": "address"
        },
        {
          "internalType": "uint256",
          "name": "addedValue",
          "type": "uint256"
        }
      ],
      "name": "increaseAllowance",
      "outputs": [
        {
          "internalType": "bool",
          "name": "",
          "type": "bool"
        }
      ],
      "stateMutability": "nonpayable",
      "type": "function"
    },
    {
      "inputs": [
        {
          "internalType": "address",
          "name": "to",
          "type": "address"
        },
        {
          "internalType": "uint256",
          "name": "amount",
          "type": "uint256"
        }
      ],
      "name": "mint",
      "outputs": [],
      "stateMutability": "nonpayable",
      "type": "function"
    },
    {
      "inputs": [],
      "name": "name",
      "outputs": [
        {
          "internalType": "string",
          "name": "",
          "type": "string"
        }
      ],
      "stateMutability": "view",
      "type": "function"
    },
    {
      "inputs": [],
      "name": "pause",
      "outputs": [],
      "stateMutability": "nonpayable",
      "type": "function"
    },
    {
      "inputs": [],
      "name": "paused",
      "outputs": [
        {
          "internalType": "bool",
          "name": "",
          "type": "bool"
        }
      ],
      "stateMutability": "view",
      "type": "function"
    },
    {
      "inputs": [
        {
          "internalType": "bytes32",
          "name": "role",
          "type": "bytes32"
        },
        {
          "internalType": "address",
          "name": "account",
          "type": "address"
        }
      ],
      "name": "renounceRole",
      "outputs": [],
      "stateMutability": "nonpayable",
      "type": "function"
    },
    {
      "inputs": [
        {
          "internalType": "bytes32",
          "name": "role",
          "type": "bytes32"
        },
        {
          "internalType": "address",
          "name": "account",
          "type": "address"
        }
      ],
      "name": "revokeRole",
      "outputs": [],
      "stateMutability": "nonpayable",
      "type": "function"
    },
    {
      "inputs": [
        {
          "internalType": "bytes4",
          "name": "interfaceId",
          "type": "bytes4"
        }
      ],
      "name": "supportsInterface",
      "outputs": [
        {
          "internalType": "bool",
          "name": "",
          "type": "bool"
        }
      ],
      "stateMutability": "view",
      "type": "function"
    },
    {
      "inputs": [],
      "name": "symbol",
      "outputs": [
        {
          "internalType": "string",
          "name": "",
          "type": "string"
        }
      ],
      "stateMutability": "view",
      "type": "function"
    },
    {
      "inputs": [],
      "name": "totalSupply",
      "outputs": [
        {
          "internalType": "uint256",
          "name": "",
          "type": "uint256"
        }
      ],
      "stateMutability": "view",
      "type": "function"
    },
    {
      "inputs": [
        {
          "internalType": "address",
          "name": "recipient",
          "type": "address"
        },
        {
          "internalType": "uint256",
          "name": "amount",
          "type": "uint256"
        }
      ],
      "name": "transfer",
      "outputs": [
        {
          "internalType": "bool",
          "name": "",
          "type": "bool"
        }
      ],
      "stateMutability": "nonpayable",
      "type": "function"
    },
    {
      "inputs": [
        {
          "internalType": "address",
          "name": "sender",
          "type": "address"
        },
        {
          "internalType": "address",
          "name": "recipient",
          "type": "address"
        },
        {
          "internalType": "uint256",
          "name": "amount",
          "type": "uint256"
        }
      ],
      "name": "transferFrom",
      "outputs": [
        {
          "internalType": "bool",
          "name": "",
          "type": "bool"
        }
      ],
      "stateMutability": "nonpayable",
      "type": "function"
    },
    {
      "inputs": [],
      "name": "unpause",
      "outputs": [],
      "stateMutability": "nonpayable",
      "type": "function"
    }
  ],
  "bytecode": "0x60806040523480156200001157600080fd5b506040516200178738038062001787833981016040819052620000349162000227565b604080518082018252600d81526c4c616e64657220506f696e747360981b6020808301918252835180850190945260038452620334c560ec1b908401526000805460ff1916905581519192916200008e9160059162000181565b508051620000a490600690602084019062000181565b50620000b691506000905082620000e9565b620000e27f65d7a28e3265b37a6474929f336521b332c1681b933f6cb9f3376673440d862a82620000e9565b5062000296565b620000f58282620000f9565b5050565b60008281526001602090815260408083206001600160a01b038516845290915290205460ff16620000f55760008281526001602081815260408084206001600160a01b0386168086529252808420805460ff19169093179092559051339285917f2f8788117e7eff1d82e926ec794901d17c78024a50270940304540a733656f0d9190a45050565b8280546200018f9062000259565b90600052602060002090601f016020900481019282620001b35760008555620001fe565b82601f10620001ce57805160ff1916838001178555620001fe565b82800160010185558215620001fe579182015b82811115620001fe578251825591602001919060010190620001e1565b506200020c92915062000210565b5090565b5b808211156200020c576000815560010162000211565b6000602082840312156200023a57600080fd5b81516001600160a01b03811681146200025257600080fd5b9392505050565b600181811c908216806200026e57607f821691505b602082108114156200029057634e487b7160e01b600052602260045260246000fd5b50919050565b6114e180620002a66000396000f3fe608060405234801561001057600080fd5b50600436106101585760003560e01c806342966c68116100c35780639dc29fac1161007c5780639dc29fac146102c5578063a217fddf146102d8578063a457c2d7146102e0578063a9059cbb146102f3578063d547741f14610306578063dd62ed3e1461031957600080fd5b806342966c681461025b5780635c975abb1461026e57806370a08231146102795780638456cb59146102a257806391d14854146102aa57806395d89b41146102bd57600080fd5b80632f2ff15d116101155780632f2ff15d146101f6578063313ce5671461020b57806336568abe1461021a578063395093511461022d5780633f4ba83a1461024057806340c10f191461024857600080fd5b806301ffc9a71461015d57806306fdde0314610185578063095ea7b31461019a57806318160ddd146101ad57806323b872dd146101bf578063248a9ca3146101d2575b600080fd5b61017061016b3660046111bf565b610352565b60405190151581526020015b60405180910390f35b61018d610389565b60405161017c9190611215565b6101706101a8366004611264565b61041b565b6004545b60405190815260200161017c565b6101706101cd36600461128e565b610431565b6101b16101e03660046112ca565b6000908152600160208190526040909120015490565b6102096102043660046112e3565b6104e0565b005b6040516012815260200161017c565b6102096102283660046112e3565b61050c565b61017061023b366004611264565b61058a565b6102096105c6565b610209610256366004611264565b6105fc565b6102096102693660046112ca565b610677565b60005460ff16610170565b6101b161028736600461130f565b6001600160a01b031660009081526002602052604090205490565b610209610681565b6101706102b83660046112e3565b6106b4565b61018d6106df565b6102096102d3366004611264565b6106ee565b6101b1600081565b6101706102ee366004611264565b61077d565b610170610301366004611264565b610816565b6102096103143660046112e3565b610823565b6101b161032736600461132a565b6001600160a01b03918216600090815260036020908152604080832093909416825291909152205490565b60006001600160e01b03198216637965db0b60e01b148061038357506301ffc9a760e01b6001600160e01b03198316145b92915050565b60606005805461039890611354565b80601f01602080910402602001604051908101604052809291908181526020018280546103c490611354565b80156104115780601f106103e657610100808354040283529160200191610411565b820191906000526020600020905b8154815290600101906020018083116103f457829003601f168201915b5050505050905090565b600061042833848461084a565b50600192915050565b600061043e84848461096e565b6001600160a01b0384166000908152600360209081526040808320338452909152902054828110156104c85760405162461bcd60e51b815260206004820152602860248201527f45524332303a207472616e7366657220616d6f756e74206578636565647320616044820152676c6c6f77616e636560c01b60648201526084015b60405180910390fd5b6104d5853385840361084a565b506001949350505050565b600082815260016020819052604090912001546104fd8133610b49565b6105078383610bad565b505050565b6001600160a01b038116331461057c5760405162461bcd60e51b815260206004820152602f60248201527f416363657373436f6e74726f6c3a2063616e206f6e6c792072656e6f756e636560448201526e103937b632b9903337b91039b2b63360891b60648201526084016104bf565b6105868282610c18565b5050565b3360008181526003602090815260408083206001600160a01b038716845290915281205490916104289185906105c19086906113a5565b61084a565b7f65d7a28e3265b37a6474929f336521b332c1681b933f6cb9f3376673440d862a6105f18133610b49565b6105f9610c7f565b50565b60005460ff16156106425760405162461bcd60e51b815260206004820152601060248201526f14185d5cd8589b194e881c185d5cd95960821b60448201526064016104bf565b7f9f2df0fed2c77648de5860a4cc508cd0818c85b8b8a1ab4ceeef8d981c8956a661066d8133610b49565b6105078383610d12565b6105f93382610dfd565b7f65d7a28e3265b37a6474929f336521b332c1681b933f6cb9f3376673440d862a6106ac8133610b49565b6105f9610f57565b60009182526001602090815260408084206001600160a01b0393909316845291905290205460ff1690565b60606006805461039890611354565b336107197f3c11d16cbaffd01df69ce1c404f6340ee057498f5f00246190ea54220576a848826106b4565b610773576001600160a01b03838116600090815260036020908152604080832093851683529290522054828110156107645760405163574b16a760e11b815260040160405180910390fd5b610771848385840361084a565b505b6105078383610dfd565b3360009081526003602090815260408083206001600160a01b0386168452909152812054828110156107ff5760405162461bcd60e51b815260206004820152602560248201527f45524332303a2064656372656173656420616c6c6f77616e63652062656c6f77604482015264207a65726f60d81b60648201526084016104bf565b61080c338585840361084a565b5060019392505050565b600061042833848461096e565b600082815260016020819052604090912001546108408133610b49565b6105078383610c18565b6001600160a01b0383166108ac5760405162461bcd60e51b8152602060048201526024808201527f45524332303a20617070726f76652066726f6d20746865207a65726f206164646044820152637265737360e01b60648201526084016104bf565b6001600160a01b03821661090d5760405162461bcd60e51b815260206004820152602260248201527f45524332303a20617070726f766520746f20746865207a65726f206164647265604482015261737360f01b60648201526084016104bf565b6001600160a01b0383811660008181526003602090815260408083209487168084529482529182902085905590518481527f8c5be1e5ebec7d5bd14f71427d1e84f3dd0314c0f7b2291e5b200ac8c7c3b925910160405180910390a3505050565b6001600160a01b0383166109d25760405162461bcd60e51b815260206004820152602560248201527f45524332303a207472616e736665722066726f6d20746865207a65726f206164604482015264647265737360d81b60648201526084016104bf565b6001600160a01b038216610a345760405162461bcd60e51b815260206004820152602360248201527f45524332303a207472616e7366657220746f20746865207a65726f206164647260448201526265737360e81b60648201526084016104bf565b610a3f838383610fd2565b6001600160a01b03831660009081526002602052604090205481811015610ab75760405162461bcd60e51b815260206004820152602660248201527f45524332303a207472616e7366657220616d6f756e7420657863656564732062604482015265616c616e636560d01b60648201526084016104bf565b6001600160a01b03808516600090815260026020526040808220858503905591851681529081208054849290610aee9084906113a5565b92505081905550826001600160a01b0316846001600160a01b03167fddf252ad1be2c89b69c2b068fc378daa952ba7f163c4a11628f55a4df523b3ef84604051610b3a91815260200190565b60405180910390a35b50505050565b610b5382826106b4565b61058657610b6b816001600160a01b0316601461101c565b610b7683602061101c565b604051602001610b879291906113bd565b60408051601f198184030181529082905262461bcd60e51b82526104bf91600401611215565b610bb782826106b4565b6105865760008281526001602081815260408084206001600160a01b0386168086529252808420805460ff19169093179092559051339285917f2f8788117e7eff1d82e926ec794901d17c78024a50270940304540a733656f0d9190a45050565b610c2282826106b4565b156105865760008281526001602090815260408083206001600160a01b0385168085529252808320805460ff1916905551339285917ff6391f5c32d9c69d2a47ea670b442974b53935d1edc7fd64eb21e047a839171b9190a45050565b60005460ff16610cc85760405162461bcd60e51b815260206004820152601460248201527314185d5cd8589b194e881b9bdd081c185d5cd95960621b60448201526064016104bf565b6000805460ff191690557f5db9ee0a495bf2e6ff9c91a7834c1ba4fdd244a5e8aa4e537bd38aeae4b073aa335b6040516001600160a01b03909116815260200160405180910390a1565b6001600160a01b038216610d685760405162461bcd60e51b815260206004820152601f60248201527f45524332303a206d696e7420746f20746865207a65726f20616464726573730060448201526064016104bf565b610d7460008383610fd2565b8060046000828254610d8691906113a5565b90915550506001600160a01b03821660009081526002602052604081208054839290610db39084906113a5565b90915550506040518181526001600160a01b038316906000907fddf252ad1be2c89b69c2b068fc378daa952ba7f163c4a11628f55a4df523b3ef9060200160405180910390a35050565b6001600160a01b038216610e5d5760405162461bcd60e51b815260206004820152602160248201527f45524332303a206275726e2066726f6d20746865207a65726f206164647265736044820152607360f81b60648201526084016104bf565b610e6982600083610fd2565b6001600160a01b03821660009081526002602052604090205481811015610edd5760405162461bcd60e51b815260206004820152602260248201527f45524332303a206275726e20616d6f756e7420657863656564732062616c616e604482015261636560f01b60648201526084016104bf565b6001600160a01b0383166000908152600260205260408120838303905560048054849290610f0c908490611432565b90915550506040518281526000906001600160a01b038516907fddf252ad1be2c89b69c2b068fc378daa952ba7f163c4a11628f55a4df523b3ef9060200160405180910390a3505050565b60005460ff1615610f9d5760405162461bcd60e51b815260206004820152601060248201526f14185d5cd8589b194e881c185d5cd95960821b60448201526064016104bf565b6000805460ff191660011790557f62e78cea01bee320cd4e420270b5ea74000d11b0c9f74754ebdbfc544b05a258610cf53390565b60005460ff1680610ffe57506001600160a01b03831615801590610ffe57506001600160a01b03821615155b156105075760405163574b16a760e11b815260040160405180910390fd5b6060600061102b836002611449565b6110369060026113a5565b67ffffffffffffffff81111561104e5761104e611468565b6040519080825280601f01601f191660200182016040528015611078576020820181803683370190505b509050600360fc1b816000815181106110935761109361147e565b60200101906001600160f81b031916908160001a905350600f60fb1b816001815181106110c2576110c261147e565b60200101906001600160f81b031916908160001a90535060006110e6846002611449565b6110f19060016113a5565b90505b6001811115611169576f181899199a1a9b1b9c1cb0b131b232b360811b85600f16601081106111255761112561147e565b1a60f81b82828151811061113b5761113b61147e565b60200101906001600160f81b031916908160001a90535060049490941c9361116281611494565b90506110f4565b5083156111b85760405162461bcd60e51b815260206004820181905260248201527f537472696e67733a20686578206c656e67746820696e73756666696369656e7460448201526064016104bf565b9392505050565b6000602082840312156111d157600080fd5b81356001600160e01b0319811681146111b857600080fd5b60005b838110156112045781810151838201526020016111ec565b83811115610b435750506000910152565b60208152600082518060208401526112348160408501602087016111e9565b601f01601f19169190910160400192915050565b80356001600160a01b038116811461125f57600080fd5b919050565b6000806040838503121561127757600080fd5b61128083611248565b946020939093013593505050565b6000806000606084860312156112a357600080fd5b6112ac84611248565b92506112ba60208501611248565b9150604084013590509250925092565b6000602082840312156112dc57600080fd5b5035919050565b600080604083850312156112f657600080fd5b8235915061130660208401611248565b90509250929050565b60006020828403121561132157600080fd5b6111b882611248565b6000806040838503121561133d57600080fd5b61134683611248565b915061130660208401611248565b600181811c9082168061136857607f821691505b6020821081141561138957634e487b7160e01b600052602260045260246000fd5b50919050565b634e487b7160e01b600052601160045260246000fd5b600082198211156113b8576113b861138f565b500190565b7f416363657373436f6e74726f6c3a206163636f756e74200000000000000000008152600083516113f58160178501602088016111e9565b7001034b99036b4b9b9b4b733903937b6329607d1b60179184019182015283516114268160288401602088016111e9565b01602801949350505050565b6000828210156114445761144461138f565b500390565b60008160001904831182151516156114635761146361138f565b500290565b634e487b7160e01b600052604160045260246000fd5b634e487b7160e01b600052603260045260246000fd5b6000816114a3576114a361138f565b50600019019056fea264697066735822122099c4b15626166ff972da48adc3880b3c185c3e4fdc32afeedcd9be421cece2bc64736f6c63430008090033",
  "linkReferences": {},
  "deployedLinkReferences": {}
}