{
  "_format": "hh-sol-artifact-1",
  "contractName": "ERC721Staking",
  "sourceName": "contracts/ERC721Staking.sol",
  "abi": [
    {
      "inputs": [
        {
          "internalType": "contract IERC721Enumerable",
          "name": "nft",
          "type": "address"
        },
        {
          "internalType": "contract IERC20Mintable",
          "name": "token",
          "type": "address"
        },
        {
          "internalType": "address",
          "name": "admin",
          "type": "address"
        }
      ],
      "stateMutability": "nonpayable",
      "type": "constructor"
    },
    {
      "inputs": [],
      "name": "InvalidCall",
      "type": "error"
    },
    {
      "anonymous": false,
      "inputs": [
        {
          "indexed": false,
          "internalType": "address",
          "name": "owner",
          "type": "address"
        },
        {
          "indexed": false,
          "internalType": "uint256",
          "name": "amount",
          "type": "uint256"
        }
      ],
      "name": "Release",
      "type": "event"
    },
    {
      "anonymous": false,
      "inputs": [
        {
          "indexed": true,
          "internalType": "bytes32",
          "name": "role",
          "type": "bytes32"
        },
        {
          "indexed": true,
          "internalType": "bytes32",
          "name": "previousAdminRole",
          "type": "bytes32"
        },
        {
          "indexed": true,
          "internalType": "bytes32",
          "name": "newAdminRole",
          "type": "bytes32"
        }
      ],
      "name": "RoleAdminChanged",
      "type": "event"
    },
    {
      "anonymous": false,
      "inputs": [
        {
          "indexed": true,
          "internalType": "bytes32",
          "name": "role",
          "type": "bytes32"
        },
        {
          "indexed": true,
          "internalType": "address",
          "name": "account",
          "type": "address"
        },
        {
          "indexed": true,
          "internalType": "address",
          "name": "sender",
          "type": "address"
        }
      ],
      "name": "RoleGranted",
      "type": "event"
    },
    {
      "anonymous": false,
      "inputs": [
        {
          "indexed": true,
          "internalType": "bytes32",
          "name": "role",
          "type": "bytes32"
        },
        {
          "indexed": true,
          "internalType": "address",
          "name": "account",
          "type": "address"
        },
        {
          "indexed": true,
          "internalType": "address",
          "name": "sender",
          "type": "address"
        }
      ],
      "name": "RoleRevoked",
      "type": "event"
    },
    {
      "anonymous": false,
      "inputs": [
        {
          "indexed": true,
          "internalType": "address",
          "name": "from",
          "type": "address"
        },
        {
          "indexed": true,
          "internalType": "address",
          "name": "to",
          "type": "address"
        },
        {
          "indexed": true,
          "internalType": "uint256",
          "name": "tokenId",
          "type": "uint256"
        }
      ],
      "name": "Transfer",
      "type": "event"
    },
    {
      "inputs": [],
      "name": "DEFAULT_ADMIN_ROLE",
      "outputs": [
        {
          "internalType": "bytes32",
          "name": "",
          "type": "bytes32"
        }
      ],
      "stateMutability": "view",
      "type": "function"
    },
    {
      "inputs": [],
      "name": "NFT",
      "outputs": [
        {
          "internalType": "contract IERC721Enumerable",
          "name": "",
          "type": "address"
        }
      ],
      "stateMutability": "view",
      "type": "function"
    },
    {
      "inputs": [],
      "name": "TOKEN",
      "outputs": [
        {
          "internalType": "contract IERC20Mintable",
          "name": "",
          "type": "address"
        }
      ],
      "stateMutability": "view",
      "type": "function"
    },
    {
      "inputs": [
        {
          "internalType": "address",
          "name": "owner",
          "type": "address"
        }
      ],
      "name": "available",
      "outputs": [
        {
          "internalType": "uint256[]",
          "name": "",
          "type": "uint256[]"
        }
      ],
      "stateMutability": "view",
      "type": "function"
    },
    {
      "inputs": [
        {
          "internalType": "address",
          "name": "owner",
          "type": "address"
        }
      ],
      "name": "balanceOf",
      "outputs": [
        {
          "internalType": "uint256",
          "name": "balance",
          "type": "uint256"
        }
      ],
      "stateMutability": "view",
      "type": "function"
    },
    {
      "inputs": [
        {
          "internalType": "bytes32",
          "name": "role",
          "type": "bytes32"
        }
      ],
      "name": "getRoleAdmin",
      "outputs": [
        {
          "internalType": "bytes32",
          "name": "",
          "type": "bytes32"
        }
      ],
      "stateMutability": "view",
      "type": "function"
    },
    {
      "inputs": [
        {
          "internalType": "bytes32",
          "name": "role",
          "type": "bytes32"
        },
        {
          "internalType": "address",
          "name": "account",
          "type": "address"
        }
      ],
      "name": "grantRole",
      "outputs": [],
      "stateMutability": "nonpayable",
      "type": "function"
    },
    {
      "inputs": [
        {
          "internalType": "bytes32",
          "name": "role",
          "type": "bytes32"
        },
        {
          "internalType": "address",
          "name": "account",
          "type": "address"
        }
      ],
      "name": "hasRole",
      "outputs": [
        {
          "internalType": "bool",
          "name": "",
          "type": "bool"
        }
      ],
      "stateMutability": "view",
      "type": "function"
    },
    {
      "inputs": [
        {
          "internalType": "address",
          "name": "",
          "type": "address"
        },
        {
          "internalType": "address",
          "name": "",
          "type": "address"
        },
        {
          "internalType": "uint256",
          "name": "",
          "type": "uint256"
        },
        {
          "internalType": "bytes",
          "name": "",
          "type": "bytes"
        }
      ],
      "name": "onERC721Received",
      "outputs": [
        {
          "internalType": "bytes4",
          "name": "",
          "type": "bytes4"
        }
      ],
      "stateMutability": "pure",
      "type": "function"
    },
    {
      "inputs": [
        {
          "internalType": "uint256",
          "name": "tokenId",
          "type": "uint256"
        }
      ],
      "name": "ownerOf",
      "outputs": [
        {
          "internalType": "address",
          "name": "owner",
          "type": "address"
        }
      ],
      "stateMutability": "view",
      "type": "function"
    },
    {
      "inputs": [
        {
          "internalType": "address",
          "name": "staker",
          "type": "address"
        },
        {
          "internalType": "uint256[]",
          "name": "tokenIds",
          "type": "uint256[]"
        }
      ],
      "name": "release",
      "outputs": [],
      "stateMutability": "nonpayable",
      "type": "function"
    },
    {
      "inputs": [
        {
          "internalType": "uint256[]",
          "name": "tokenIds",
          "type": "uint256[]"
        }
      ],
      "name": "release",
      "outputs": [],
      "stateMutability": "nonpayable",
      "type": "function"
    },
    {
      "inputs": [
        {
          "internalType": "uint256",
          "name": "tokenId",
          "type": "uint256"
        }
      ],
      "name": "releaseable",
      "outputs": [
        {
          "internalType": "uint256",
          "name": "",
          "type": "uint256"
        }
      ],
      "stateMutability": "view",
      "type": "function"
    },
    {
      "inputs": [
        {
          "internalType": "uint256",
          "name": "tokenId",
          "type": "uint256"
        }
      ],
      "name": "released",
      "outputs": [
        {
          "internalType": "uint256",
          "name": "",
          "type": "uint256"
        }
      ],
      "stateMutability": "view",
      "type": "function"
    },
    {
      "inputs": [
        {
          "internalType": "bytes32",
          "name": "role",
          "type": "bytes32"
        },
        {
          "internalType": "address",
          "name": "account",
          "type": "address"
        }
      ],
      "name": "renounceRole",
      "outputs": [],
      "stateMutability": "nonpayable",
      "type": "function"
    },
    {
      "inputs": [
        {
          "internalType": "bytes32",
          "name": "role",
          "type": "bytes32"
        },
        {
          "internalType": "address",
          "name": "account",
          "type": "address"
        }
      ],
      "name": "revokeRole",
      "outputs": [],
      "stateMutability": "nonpayable",
      "type": "function"
    },
    {
      "inputs": [
        {
          "internalType": "uint256[]",
          "name": "tokenIds",
          "type": "uint256[]"
        }
      ],
      "name": "stake",
      "outputs": [],
      "stateMutability": "nonpayable",
      "type": "function"
    },
    {
      "inputs": [
        {
          "internalType": "address",
          "name": "staker",
          "type": "address"
        },
        {
          "internalType": "uint256[]",
          "name": "tokenIds",
          "type": "uint256[]"
        }
      ],
      "name": "stake",
      "outputs": [],
      "stateMutability": "nonpayable",
      "type": "function"
    },
    {
      "inputs": [
        {
          "internalType": "address",
          "name": "staker",
          "type": "address"
        }
      ],
      "name": "staked",
      "outputs": [
        {
          "internalType": "uint256[]",
          "name": "",
          "type": "uint256[]"
        }
      ],
      "stateMutability": "view",
      "type": "function"
    },
    {
      "inputs": [
        {
          "internalType": "uint256",
          "name": "tokenId",
          "type": "uint256"
        }
      ],
      "name": "stakedLongest",
      "outputs": [
        {
          "internalType": "uint256",
          "name": "",
          "type": "uint256"
        }
      ],
      "stateMutability": "view",
      "type": "function"
    },
    {
      "inputs": [
        {
          "internalType": "uint256",
          "name": "tokenId",
          "type": "uint256"
        }
      ],
      "name": "stakedSince",
      "outputs": [
        {
          "internalType": "uint256",
          "name": "",
          "type": "uint256"
        }
      ],
      "stateMutability": "view",
      "type": "function"
    },
    {
      "inputs": [
        {
          "internalType": "bytes4",
          "name": "interfaceId",
          "type": "bytes4"
        }
      ],
      "name": "supportsInterface",
      "outputs": [
        {
          "internalType": "bool",
          "name": "",
          "type": "bool"
        }
      ],
      "stateMutability": "view",
      "type": "function"
    },
    {
      "inputs": [
        {
          "internalType": "address",
          "name": "staker",
          "type": "address"
        },
        {
          "internalType": "uint256[]",
          "name": "tokenIds",
          "type": "uint256[]"
        }
      ],
      "name": "unstake",
      "outputs": [],
      "stateMutability": "nonpayable",
      "type": "function"
    },
    {
      "inputs": [
        {
          "internalType": "uint256[]",
          "name": "tokenIds",
          "type": "uint256[]"
        }
      ],
      "name": "unstake",
      "outputs": [],
      "stateMutability": "nonpayable",
      "type": "function"
    },
    {
      "inputs": [
        {
          "internalType": "uint256",
          "name": "rate",
          "type": "uint256"
        }
      ],
      "name": "updateRate",
      "outputs": [],
      "stateMutability": "nonpayable",
      "type": "function"
    }
  ],
  "bytecode": "0x60c0604052655af3107a40006006553480156200001b57600080fd5b5060405162001ad438038062001ad48339810160408190526200003e9162000130565b6001600160a01b03808416608052821660a0526200005e60008262000067565b50505062000184565b62000073828262000077565b5050565b6000828152602081815260408083206001600160a01b038516845290915290205460ff1662000073576000828152602081815260408083206001600160a01b03851684529091529020805460ff19166001179055620000d33390565b6001600160a01b0316816001600160a01b0316837f2f8788117e7eff1d82e926ec794901d17c78024a50270940304540a733656f0d60405160405180910390a45050565b6001600160a01b03811681146200012d57600080fd5b50565b6000806000606084860312156200014657600080fd5b8351620001538162000117565b6020850151909350620001668162000117565b6040850151909250620001798162000117565b809150509250925092565b60805160a0516118f9620001db600039600081816103590152610d940152600081816103320152818161046c01528181610520015281816105f60152818161089701528181610b170152610fcf01526118f96000f3fe608060405234801561001057600080fd5b50600436106101735760003560e01c806369ea1771116100de578063a217fddf11610097578063c9a3911e11610071578063c9a3911e146103e9578063ceedebe9146103a9578063d547741f146103fc578063e449f3411461040f57600080fd5b8063a217fddf146103a1578063a94d373b146103a9578063ac3feee9146103c957600080fd5b806369ea1771146102f157806370a08231146103045780637c0b8de21461032d57806382bfefc81461035457806391d148541461037b57806398807d841461038e57600080fd5b80632f2ff15d116101305780632f2ff15d1461025157806336568abe146102645780633e97394c146102775780635dbe47561461028a5780636352211e1461029d5780636582f4fa146102de57600080fd5b806301ffc9a7146101785780630fbf0a93146101a057806310098ad5146101b5578063150b7a02146101d557806318ace4011461020d578063248a9ca314610220575b600080fd5b61018b61018636600461143a565b610422565b60405190151581526020015b60405180910390f35b6101b36101ae36600461150a565b610459565b005b6101c86101c3366004611554565b610466565b6040516101979190611571565b6101f46101e33660046115b5565b630a85bd0160e11b95945050505050565b6040516001600160e01b03199091168152602001610197565b6101b361021b366004611654565b6106e8565b61024361022e3660046116a4565b60009081526020819052604090206001015490565b604051908152602001610197565b6101b361025f3660046116bd565b610722565b6101b36102723660046116bd565b610748565b6101b361028536600461150a565b6107cb565b6101b3610298366004611654565b6107d5565b6102c66102ab3660046116a4565b6000908152600260205260409020546001600160a01b031690565b6040516001600160a01b039091168152602001610197565b6102436102ec3660046116a4565b61080a565b6101b36102ff3660046116a4565b610837565b610243610312366004611554565b6001600160a01b031660009081526001602052604090205490565b6102c67f000000000000000000000000000000000000000000000000000000000000000081565b6102c67f000000000000000000000000000000000000000000000000000000000000000081565b61018b6103893660046116bd565b610868565b6101c861039c366004611554565b610891565b610243600081565b6102436103b73660046116a4565b60009081526003602052604090205490565b6102436103d73660046116a4565b60009081526005602052604090205490565b6101b36103f7366004611654565b6109f8565b6101b361040a3660046116bd565b610a2d565b6101b361041d36600461150a565b610a53565b60006001600160e01b03198216637965db0b60e01b148061045357506301ffc9a760e01b6001600160e01b03198316145b92915050565b6104633382610a5d565b50565b606060007f00000000000000000000000000000000000000000000000000000000000000006001600160a01b03166318160ddd6040518163ffffffff1660e01b815260040160206040518083038186803b1580156104c357600080fd5b505afa1580156104d7573d6000803e3d6000fd5b505050506040513d601f19601f820116820180604052508101906104fb91906116ed565b6040516370a0823160e01b81526001600160a01b0385811660048301529192506000917f000000000000000000000000000000000000000000000000000000000000000016906370a082319060240160206040518083038186803b15801561056257600080fd5b505afa158015610576573d6000803e3d6000fd5b505050506040513d601f19601f8201168201806040525081019061059a91906116ed565b67ffffffffffffffff8111156105b2576105b2611464565b6040519080825280602002602001820160405280156105db578160200160208202803683370190505b509050600060015b8381116106de57856001600160a01b03167f00000000000000000000000000000000000000000000000000000000000000006001600160a01b0316636352211e836040518263ffffffff1660e01b815260040161064291815260200190565b60206040518083038186803b15801561065a57600080fd5b505afa15801561066e573d6000803e3d6000fd5b505050506040513d601f19601f820116820180604052508101906106929190611706565b6001600160a01b031614156106cc578083836106ad81611739565b9450815181106106bf576106bf611754565b6020026020010181815250505b806106d681611739565b9150506105e3565b5090949350505050565b7fb9e206fa2af7ee1331b72ce58b6d938ac810ce9b5cdb65d35ab723fd67badf9e6107138133610bf6565b61071d8383610c5a565b505050565b60008281526020819052604090206001015461073e8133610bf6565b61071d8383610e05565b6001600160a01b03811633146107bd5760405162461bcd60e51b815260206004820152602f60248201527f416363657373436f6e74726f6c3a2063616e206f6e6c792072656e6f756e636560448201526e103937b632b9903337b91039b2b63360891b60648201526084015b60405180910390fd5b6107c78282610e89565b5050565b6104633382610c5a565b7fb9e206fa2af7ee1331b72ce58b6d938ac810ce9b5cdb65d35ab723fd67badf9e6108008133610bf6565b61071d8383610eee565b60008181526004602052604081205461082557506000919050565b61045361083283426110f6565b611116565b7f850d585eb7f024ccee5e68e55f2c26cc72e1e6ee456acf62135757a5eb9d4a106108628133610bf6565b50600655565b6000918252602082815260408084206001600160a01b0393909316845291905290205460ff1690565b606060007f00000000000000000000000000000000000000000000000000000000000000006001600160a01b03166318160ddd6040518163ffffffff1660e01b815260040160206040518083038186803b1580156108ee57600080fd5b505afa158015610902573d6000803e3d6000fd5b505050506040513d601f19601f8201168201806040525081019061092691906116ed565b90506000610949846001600160a01b031660009081526001602052604090205490565b67ffffffffffffffff81111561096157610961611464565b60405190808252806020026020018201604052801561098a578160200160208202803683370190505b509050600060015b8381116106de576000818152600260205260409020546001600160a01b03878116911614156109e6578083836109c781611739565b9450815181106109d9576109d9611754565b6020026020010181815250505b806109f081611739565b915050610992565b7fb9e206fa2af7ee1331b72ce58b6d938ac810ce9b5cdb65d35ab723fd67badf9e610a238133610bf6565b61071d8383610a5d565b600082815260208190526040902060010154610a498133610bf6565b61071d8383610e89565b6104633382610eee565b80516001600160a01b03831660009081526001602052604081208054909190610a8790849061176a565b90915550600090505b815181101561071d576000828281518110610aad57610aad611754565b602002602001015190506004600082815260200190815260200160002054600014610aeb5760405163574b16a760e11b815260040160405180910390fd5b6040516323b872dd60e01b81526001600160a01b038581166004830152306024830152604482018390527f000000000000000000000000000000000000000000000000000000000000000016906323b872dd90606401600060405180830381600087803b158015610b5b57600080fd5b505af1158015610b6f573d6000803e3d6000fd5b505050600082815260026020908152604080832080546001600160a01b0319166001600160a01b038a16908117909155600383528184204290819055600490935281842092909255518493509091907fddf252ad1be2c89b69c2b068fc378daa952ba7f163c4a11628f55a4df523b3ef908290a45080610bee81611739565b915050610a90565b610c008282610868565b6107c757610c18816001600160a01b03166014611126565b610c23836020611126565b604051602001610c349291906117b2565b60408051601f198184030181529082905262461bcd60e51b82526107b491600401611827565b6000805b8251811015610d1c576000838281518110610c7b57610c7b611754565b60200260200101519050600460008281526020019081526020016000205460001480610cc157506000818152600260205260409020546001600160a01b03868116911614155b15610cdf5760405163574b16a760e11b815260040160405180910390fd5b610cec61083282426110f6565b610cf6908461176a565b600091825260046020526040909120429055915080610d1481611739565b915050610c5e565b50604080516001600160a01b03858116602483015260448083018590528351808403909101815260649092018352602080830180516001600160e01b03166340c10f1960e01b17905283518085019094526015845274131bddcb5b195d995b081b5a5b9d0819985a5b1959605a1b90840152610dbd927f000000000000000000000000000000000000000000000000000000000000000090911691906112c2565b50604080516001600160a01b0385168152602081018390527ff6334794522b9db534a812aaae1af828a2e96aac68473b58e36d7d0bfd67477b910160405180910390a1505050565b610e0f8282610868565b6107c7576000828152602081815260408083206001600160a01b03851684529091529020805460ff19166001179055610e453390565b6001600160a01b0316816001600160a01b0316837f2f8788117e7eff1d82e926ec794901d17c78024a50270940304540a733656f0d60405160405180910390a45050565b610e938282610868565b156107c7576000828152602081815260408083206001600160a01b0385168085529252808320805460ff1916905551339285917ff6391f5c32d9c69d2a47ea670b442974b53935d1edc7fd64eb21e047a839171b9190a45050565b80516001600160a01b03831660009081526001602052604081208054909190610f1890849061185a565b9091555060009050805b8251811015610d1c576000838281518110610f3f57610f3f611754565b60200260200101519050600460008281526020019081526020016000205460001480610f8557506000818152600260205260409020546001600160a01b03868116911614155b15610fa35760405163574b16a760e11b815260040160405180910390fd5b6040516323b872dd60e01b81523060048201526001600160a01b038681166024830152604482018390527f000000000000000000000000000000000000000000000000000000000000000016906323b872dd90606401600060405180830381600087803b15801561101357600080fd5b505af1158015611027573d6000803e3d6000fd5b505050600082815260026020526040812080546001600160a01b0319169055905061105282426110f6565b60008381526003602090815260408083208390556004825280832083905560059091529020549091508111156110945760008281526005602052604090208190555b60405182906000906001600160a01b038916907fddf252ad1be2c89b69c2b068fc378daa952ba7f163c4a11628f55a4df523b3ef908390a46110d581611116565b6110df908561176a565b9350505080806110ee90611739565b915050610f22565b60008281526004602052604081205461110f908361185a565b9392505050565b6000600654826104539190611871565b60606000611135836002611871565b61114090600261176a565b67ffffffffffffffff81111561115857611158611464565b6040519080825280601f01601f191660200182016040528015611182576020820181803683370190505b509050600360fc1b8160008151811061119d5761119d611754565b60200101906001600160f81b031916908160001a905350600f60fb1b816001815181106111cc576111cc611754565b60200101906001600160f81b031916908160001a90535060006111f0846002611871565b6111fb90600161176a565b90505b6001811115611273576f181899199a1a9b1b9c1cb0b131b232b360811b85600f166010811061122f5761122f611754565b1a60f81b82828151811061124557611245611754565b60200101906001600160f81b031916908160001a90535060049490941c9361126c81611890565b90506111fe565b50831561110f5760405162461bcd60e51b815260206004820181905260248201527f537472696e67733a20686578206c656e67746820696e73756666696369656e7460448201526064016107b4565b60606112d184846000856112d9565b949350505050565b60608247101561133a5760405162461bcd60e51b815260206004820152602660248201527f416464726573733a20696e73756666696369656e742062616c616e636520666f6044820152651c8818d85b1b60d21b60648201526084016107b4565b843b6113885760405162461bcd60e51b815260206004820152601d60248201527f416464726573733a2063616c6c20746f206e6f6e2d636f6e747261637400000060448201526064016107b4565b600080866001600160a01b031685876040516113a491906118a7565b60006040518083038185875af1925050503d80600081146113e1576040519150601f19603f3d011682016040523d82523d6000602084013e6113e6565b606091505b50915091506113f6828286611401565b979650505050505050565b6060831561141057508161110f565b8251156114205782518084602001fd5b8160405162461bcd60e51b81526004016107b49190611827565b60006020828403121561144c57600080fd5b81356001600160e01b03198116811461110f57600080fd5b634e487b7160e01b600052604160045260246000fd5b600082601f83011261148b57600080fd5b8135602067ffffffffffffffff808311156114a8576114a8611464565b8260051b604051601f19603f830116810181811084821117156114cd576114cd611464565b6040529384528581018301938381019250878511156114eb57600080fd5b83870191505b848210156113f6578135835291830191908301906114f1565b60006020828403121561151c57600080fd5b813567ffffffffffffffff81111561153357600080fd5b6112d18482850161147a565b6001600160a01b038116811461046357600080fd5b60006020828403121561156657600080fd5b813561110f8161153f565b6020808252825182820181905260009190848201906040850190845b818110156115a95783518352928401929184019160010161158d565b50909695505050505050565b6000806000806000608086880312156115cd57600080fd5b85356115d88161153f565b945060208601356115e88161153f565b935060408601359250606086013567ffffffffffffffff8082111561160c57600080fd5b818801915088601f83011261162057600080fd5b81358181111561162f57600080fd5b89602082850101111561164157600080fd5b9699959850939650602001949392505050565b6000806040838503121561166757600080fd5b82356116728161153f565b9150602083013567ffffffffffffffff81111561168e57600080fd5b61169a8582860161147a565b9150509250929050565b6000602082840312156116b657600080fd5b5035919050565b600080604083850312156116d057600080fd5b8235915060208301356116e28161153f565b809150509250929050565b6000602082840312156116ff57600080fd5b5051919050565b60006020828403121561171857600080fd5b815161110f8161153f565b634e487b7160e01b600052601160045260246000fd5b600060001982141561174d5761174d611723565b5060010190565b634e487b7160e01b600052603260045260246000fd5b6000821982111561177d5761177d611723565b500190565b60005b8381101561179d578181015183820152602001611785565b838111156117ac576000848401525b50505050565b7f416363657373436f6e74726f6c3a206163636f756e74200000000000000000008152600083516117ea816017850160208801611782565b7001034b99036b4b9b9b4b733903937b6329607d1b601791840191820152835161181b816028840160208801611782565b01602801949350505050565b6020815260008251806020840152611846816040850160208701611782565b601f01601f19169190910160400192915050565b60008282101561186c5761186c611723565b500390565b600081600019048311821515161561188b5761188b611723565b500290565b60008161189f5761189f611723565b506000190190565b600082516118b9818460208701611782565b919091019291505056fea2646970667358221220683b0948e17d71e103c76c2436f8dd6adba47ca170999356cae3d21bfcecb34764736f6c63430008090033",
  "linkReferences": {},
  "deployedLinkReferences": {}
}