{
  "_format": "hh-sol-artifact-1",
  "contractName": "ERC721Staking",
  "sourceName": "contracts/ERC721Staking.sol",
  "abi": [
    {
      "inputs": [
        {
          "internalType": "contract IERC721Enumerable",
          "name": "nft",
          "type": "address"
        },
        {
          "internalType": "contract IERC20Mintable",
          "name": "token",
          "type": "address"
        },
        {
          "internalType": "address",
          "name": "admin",
          "type": "address"
        }
      ],
      "stateMutability": "nonpayable",
      "type": "constructor"
    },
    {
      "inputs": [],
      "name": "InvalidCall",
      "type": "error"
    },
    {
      "anonymous": false,
      "inputs": [
        {
          "indexed": false,
          "internalType": "address",
          "name": "owner",
          "type": "address"
        },
        {
          "indexed": false,
          "internalType": "uint256",
          "name": "amount",
          "type": "uint256"
        }
      ],
      "name": "Release",
      "type": "event"
    },
    {
      "anonymous": false,
      "inputs": [
        {
          "indexed": true,
          "internalType": "bytes32",
          "name": "role",
          "type": "bytes32"
        },
        {
          "indexed": true,
          "internalType": "bytes32",
          "name": "previousAdminRole",
          "type": "bytes32"
        },
        {
          "indexed": true,
          "internalType": "bytes32",
          "name": "newAdminRole",
          "type": "bytes32"
        }
      ],
      "name": "RoleAdminChanged",
      "type": "event"
    },
    {
      "anonymous": false,
      "inputs": [
        {
          "indexed": true,
          "internalType": "bytes32",
          "name": "role",
          "type": "bytes32"
        },
        {
          "indexed": true,
          "internalType": "address",
          "name": "account",
          "type": "address"
        },
        {
          "indexed": true,
          "internalType": "address",
          "name": "sender",
          "type": "address"
        }
      ],
      "name": "RoleGranted",
      "type": "event"
    },
    {
      "anonymous": false,
      "inputs": [
        {
          "indexed": true,
          "internalType": "bytes32",
          "name": "role",
          "type": "bytes32"
        },
        {
          "indexed": true,
          "internalType": "address",
          "name": "account",
          "type": "address"
        },
        {
          "indexed": true,
          "internalType": "address",
          "name": "sender",
          "type": "address"
        }
      ],
      "name": "RoleRevoked",
      "type": "event"
    },
    {
      "anonymous": false,
      "inputs": [
        {
          "indexed": true,
          "internalType": "address",
          "name": "from",
          "type": "address"
        },
        {
          "indexed": true,
          "internalType": "address",
          "name": "to",
          "type": "address"
        },
        {
          "indexed": true,
          "internalType": "uint256",
          "name": "tokenId",
          "type": "uint256"
        }
      ],
      "name": "Transfer",
      "type": "event"
    },
    {
      "inputs": [],
      "name": "DEFAULT_ADMIN_ROLE",
      "outputs": [
        {
          "internalType": "bytes32",
          "name": "",
          "type": "bytes32"
        }
      ],
      "stateMutability": "view",
      "type": "function"
    },
    {
      "inputs": [],
      "name": "NFT",
      "outputs": [
        {
          "internalType": "contract IERC721Enumerable",
          "name": "",
          "type": "address"
        }
      ],
      "stateMutability": "view",
      "type": "function"
    },
    {
      "inputs": [],
      "name": "TOKEN",
      "outputs": [
        {
          "internalType": "contract IERC20Mintable",
          "name": "",
          "type": "address"
        }
      ],
      "stateMutability": "view",
      "type": "function"
    },
    {
      "inputs": [
        {
          "internalType": "address",
          "name": "owner",
          "type": "address"
        }
      ],
      "name": "available",
      "outputs": [
        {
          "internalType": "uint256[]",
          "name": "",
          "type": "uint256[]"
        }
      ],
      "stateMutability": "view",
      "type": "function"
    },
    {
      "inputs": [
        {
          "internalType": "address",
          "name": "owner",
          "type": "address"
        }
      ],
      "name": "balanceOf",
      "outputs": [
        {
          "internalType": "uint256",
          "name": "balance",
          "type": "uint256"
        }
      ],
      "stateMutability": "view",
      "type": "function"
    },
    {
      "inputs": [
        {
          "internalType": "bytes32",
          "name": "role",
          "type": "bytes32"
        }
      ],
      "name": "getRoleAdmin",
      "outputs": [
        {
          "internalType": "bytes32",
          "name": "",
          "type": "bytes32"
        }
      ],
      "stateMutability": "view",
      "type": "function"
    },
    {
      "inputs": [
        {
          "internalType": "bytes32",
          "name": "role",
          "type": "bytes32"
        },
        {
          "internalType": "address",
          "name": "account",
          "type": "address"
        }
      ],
      "name": "grantRole",
      "outputs": [],
      "stateMutability": "nonpayable",
      "type": "function"
    },
    {
      "inputs": [
        {
          "internalType": "bytes32",
          "name": "role",
          "type": "bytes32"
        },
        {
          "internalType": "address",
          "name": "account",
          "type": "address"
        }
      ],
      "name": "hasRole",
      "outputs": [
        {
          "internalType": "bool",
          "name": "",
          "type": "bool"
        }
      ],
      "stateMutability": "view",
      "type": "function"
    },
    {
      "inputs": [
        {
          "internalType": "uint256",
          "name": "tokenId",
          "type": "uint256"
        }
      ],
      "name": "highestStakeTime",
      "outputs": [
        {
          "internalType": "uint256",
          "name": "",
          "type": "uint256"
        }
      ],
      "stateMutability": "view",
      "type": "function"
    },
    {
      "inputs": [
        {
          "internalType": "uint256",
          "name": "tokenId",
          "type": "uint256"
        }
      ],
      "name": "lastReleased",
      "outputs": [
        {
          "internalType": "uint256",
          "name": "",
          "type": "uint256"
        }
      ],
      "stateMutability": "view",
      "type": "function"
    },
    {
      "inputs": [
        {
          "internalType": "address",
          "name": "",
          "type": "address"
        },
        {
          "internalType": "address",
          "name": "",
          "type": "address"
        },
        {
          "internalType": "uint256",
          "name": "",
          "type": "uint256"
        },
        {
          "internalType": "bytes",
          "name": "",
          "type": "bytes"
        }
      ],
      "name": "onERC721Received",
      "outputs": [
        {
          "internalType": "bytes4",
          "name": "",
          "type": "bytes4"
        }
      ],
      "stateMutability": "pure",
      "type": "function"
    },
    {
      "inputs": [
        {
          "internalType": "uint256",
          "name": "tokenId",
          "type": "uint256"
        }
      ],
      "name": "ownerOf",
      "outputs": [
        {
          "internalType": "address",
          "name": "owner",
          "type": "address"
        }
      ],
      "stateMutability": "view",
      "type": "function"
    },
    {
      "inputs": [
        {
          "internalType": "address",
          "name": "staker",
          "type": "address"
        },
        {
          "internalType": "uint256[]",
          "name": "tokenIds",
          "type": "uint256[]"
        }
      ],
      "name": "release",
      "outputs": [],
      "stateMutability": "nonpayable",
      "type": "function"
    },
    {
      "inputs": [
        {
          "internalType": "uint256[]",
          "name": "tokenIds",
          "type": "uint256[]"
        }
      ],
      "name": "release",
      "outputs": [],
      "stateMutability": "nonpayable",
      "type": "function"
    },
    {
      "inputs": [
        {
          "internalType": "uint256",
          "name": "tokenId",
          "type": "uint256"
        }
      ],
      "name": "releaseable",
      "outputs": [
        {
          "internalType": "uint256",
          "name": "",
          "type": "uint256"
        }
      ],
      "stateMutability": "view",
      "type": "function"
    },
    {
      "inputs": [
        {
          "internalType": "bytes32",
          "name": "role",
          "type": "bytes32"
        },
        {
          "internalType": "address",
          "name": "account",
          "type": "address"
        }
      ],
      "name": "renounceRole",
      "outputs": [],
      "stateMutability": "nonpayable",
      "type": "function"
    },
    {
      "inputs": [
        {
          "internalType": "bytes32",
          "name": "role",
          "type": "bytes32"
        },
        {
          "internalType": "address",
          "name": "account",
          "type": "address"
        }
      ],
      "name": "revokeRole",
      "outputs": [],
      "stateMutability": "nonpayable",
      "type": "function"
    },
    {
      "inputs": [
        {
          "internalType": "uint256[]",
          "name": "tokenIds",
          "type": "uint256[]"
        }
      ],
      "name": "stake",
      "outputs": [],
      "stateMutability": "nonpayable",
      "type": "function"
    },
    {
      "inputs": [
        {
          "internalType": "address",
          "name": "staker",
          "type": "address"
        },
        {
          "internalType": "uint256[]",
          "name": "tokenIds",
          "type": "uint256[]"
        }
      ],
      "name": "stake",
      "outputs": [],
      "stateMutability": "nonpayable",
      "type": "function"
    },
    {
      "inputs": [
        {
          "internalType": "address",
          "name": "staker",
          "type": "address"
        }
      ],
      "name": "staked",
      "outputs": [
        {
          "internalType": "uint256[]",
          "name": "",
          "type": "uint256[]"
        }
      ],
      "stateMutability": "view",
      "type": "function"
    },
    {
      "inputs": [
        {
          "internalType": "uint256",
          "name": "tokenId",
          "type": "uint256"
        }
      ],
      "name": "stakedSince",
      "outputs": [
        {
          "internalType": "uint256",
          "name": "",
          "type": "uint256"
        }
      ],
      "stateMutability": "view",
      "type": "function"
    },
    {
      "inputs": [
        {
          "internalType": "bytes4",
          "name": "interfaceId",
          "type": "bytes4"
        }
      ],
      "name": "supportsInterface",
      "outputs": [
        {
          "internalType": "bool",
          "name": "",
          "type": "bool"
        }
      ],
      "stateMutability": "view",
      "type": "function"
    },
    {
      "inputs": [
        {
          "internalType": "address",
          "name": "staker",
          "type": "address"
        },
        {
          "internalType": "uint256[]",
          "name": "tokenIds",
          "type": "uint256[]"
        }
      ],
      "name": "unstake",
      "outputs": [],
      "stateMutability": "nonpayable",
      "type": "function"
    },
    {
      "inputs": [
        {
          "internalType": "uint256[]",
          "name": "tokenIds",
          "type": "uint256[]"
        }
      ],
      "name": "unstake",
      "outputs": [],
      "stateMutability": "nonpayable",
      "type": "function"
    },
    {
      "inputs": [
        {
          "internalType": "uint256",
          "name": "rate",
          "type": "uint256"
        }
      ],
      "name": "updateRate",
      "outputs": [],
      "stateMutability": "nonpayable",
      "type": "function"
    }
  ],
  "bytecode": "0x60c0604052655af3107a40006006553480156200001b57600080fd5b5060405162001b3d38038062001b3d8339810160408190526200003e9162000130565b6001600160a01b03808416608052821660a0526200005e60008262000067565b50505062000184565b62000073828262000077565b5050565b6000828152602081815260408083206001600160a01b038516845290915290205460ff1662000073576000828152602081815260408083206001600160a01b03851684529091529020805460ff19166001179055620000d33390565b6001600160a01b0316816001600160a01b0316837f2f8788117e7eff1d82e926ec794901d17c78024a50270940304540a733656f0d60405160405180910390a45050565b6001600160a01b03811681146200012d57600080fd5b50565b6000806000606084860312156200014657600080fd5b8351620001538162000117565b6020850151909350620001668162000117565b6040850151909250620001798162000117565b809150509250925092565b60805160a051611962620001db600039600081816103790152610de90152600081816103520152818161047f0152818161053301528181610609015281816108aa01528181610b6c015261102401526119626000f3fe608060405234801561001057600080fd5b50600436106101735760003560e01c80636582f4fa116100de57806398807d8411610097578063ceedebe911610071578063ceedebe9146103dc578063d547741f146103fc578063e449f3411461040f578063f2a448671461042257600080fd5b806398807d84146103ae578063a217fddf146103c1578063c9a3911e146103c957600080fd5b80636582f4fa146102fe57806369ea17711461031157806370a08231146103245780637c0b8de21461034d57806382bfefc81461037457806391d148541461039b57600080fd5b8063248a9ca311610130578063248a9ca31461024e5780632f2ff15d1461027157806336568abe146102845780633e97394c146102975780635dbe4756146102aa5780636352211e146102bd57600080fd5b806301ffc9a7146101785780630c58aa92146101a05780630fbf0a93146101ce57806310098ad5146101e3578063150b7a021461020357806318ace4011461023b575b600080fd5b61018b6101863660046114a3565b610435565b60405190151581526020015b60405180910390f35b6101c06101ae3660046114cd565b60009081526004602052604090205490565b604051908152602001610197565b6101e16101dc36600461158c565b61046c565b005b6101f66101f13660046115d6565b610479565b60405161019791906115f3565b610222610211366004611637565b630a85bd0160e11b95945050505050565b6040516001600160e01b03199091168152602001610197565b6101e16102493660046116d6565b6106fb565b6101c061025c3660046114cd565b60009081526020819052604090206001015490565b6101e161027f366004611726565b610735565b6101e1610292366004611726565b61075b565b6101e16102a536600461158c565b6107de565b6101e16102b83660046116d6565b6107e8565b6102e66102cb3660046114cd565b6000908152600260205260409020546001600160a01b031690565b6040516001600160a01b039091168152602001610197565b6101c061030c3660046114cd565b61081d565b6101e161031f3660046114cd565b61084a565b6101c06103323660046115d6565b6001600160a01b031660009081526001602052604090205490565b6102e67f000000000000000000000000000000000000000000000000000000000000000081565b6102e67f000000000000000000000000000000000000000000000000000000000000000081565b61018b6103a9366004611726565b61087b565b6101f66103bc3660046115d6565b6108a4565b6101c0600081565b6101e16103d73660046116d6565b610a0b565b6101c06103ea3660046114cd565b60009081526003602052604090205490565b6101e161040a366004611726565b610a40565b6101e161041d36600461158c565b610a66565b6101c06104303660046114cd565b610a70565b60006001600160e01b03198216637965db0b60e01b148061046657506301ffc9a760e01b6001600160e01b03198316145b92915050565b6104763382610ab2565b50565b606060007f00000000000000000000000000000000000000000000000000000000000000006001600160a01b03166318160ddd6040518163ffffffff1660e01b815260040160206040518083038186803b1580156104d657600080fd5b505afa1580156104ea573d6000803e3d6000fd5b505050506040513d601f19601f8201168201806040525081019061050e9190611756565b6040516370a0823160e01b81526001600160a01b0385811660048301529192506000917f000000000000000000000000000000000000000000000000000000000000000016906370a082319060240160206040518083038186803b15801561057557600080fd5b505afa158015610589573d6000803e3d6000fd5b505050506040513d601f19601f820116820180604052508101906105ad9190611756565b67ffffffffffffffff8111156105c5576105c56114e6565b6040519080825280602002602001820160405280156105ee578160200160208202803683370190505b509050600060015b8381116106f157856001600160a01b03167f00000000000000000000000000000000000000000000000000000000000000006001600160a01b0316636352211e836040518263ffffffff1660e01b815260040161065591815260200190565b60206040518083038186803b15801561066d57600080fd5b505afa158015610681573d6000803e3d6000fd5b505050506040513d601f19601f820116820180604052508101906106a5919061176f565b6001600160a01b031614156106df578083836106c0816117a2565b9450815181106106d2576106d26117bd565b6020026020010181815250505b806106e9816117a2565b9150506105f6565b5090949350505050565b7fb9e206fa2af7ee1331b72ce58b6d938ac810ce9b5cdb65d35ab723fd67badf9e6107268133610c4b565b6107308383610caf565b505050565b6000828152602081905260409020600101546107518133610c4b565b6107308383610e5a565b6001600160a01b03811633146107d05760405162461bcd60e51b815260206004820152602f60248201527f416363657373436f6e74726f6c3a2063616e206f6e6c792072656e6f756e636560448201526e103937b632b9903337b91039b2b63360891b60648201526084015b60405180910390fd5b6107da8282610ede565b5050565b6104763382610caf565b7fb9e206fa2af7ee1331b72ce58b6d938ac810ce9b5cdb65d35ab723fd67badf9e6108138133610c4b565b6107308383610f43565b60008181526004602052604081205461083857506000919050565b610466610845834261114b565b61117f565b7f850d585eb7f024ccee5e68e55f2c26cc72e1e6ee456acf62135757a5eb9d4a106108758133610c4b565b50600655565b6000918252602082815260408084206001600160a01b0393909316845291905290205460ff1690565b606060007f00000000000000000000000000000000000000000000000000000000000000006001600160a01b03166318160ddd6040518163ffffffff1660e01b815260040160206040518083038186803b15801561090157600080fd5b505afa158015610915573d6000803e3d6000fd5b505050506040513d601f19601f820116820180604052508101906109399190611756565b9050600061095c846001600160a01b031660009081526001602052604090205490565b67ffffffffffffffff811115610974576109746114e6565b60405190808252806020026020018201604052801561099d578160200160208202803683370190505b509050600060015b8381116106f1576000818152600260205260409020546001600160a01b03878116911614156109f9578083836109da816117a2565b9450815181106109ec576109ec6117bd565b6020026020010181815250505b80610a03816117a2565b9150506109a5565b7fb9e206fa2af7ee1331b72ce58b6d938ac810ce9b5cdb65d35ab723fd67badf9e610a368133610c4b565b6107308383610ab2565b600082815260208190526040902060010154610a5c8133610c4b565b6107308383610ede565b6104763382610f43565b600080610a7d834261114b565b6000848152600560205260409020549091508111610aa957600083815260056020526040902054610aab565b805b9392505050565b80516001600160a01b03831660009081526001602052604081208054909190610adc9084906117d3565b90915550600090505b8151811015610730576000828281518110610b0257610b026117bd565b602002602001015190506004600082815260200190815260200160002054600014610b405760405163574b16a760e11b815260040160405180910390fd5b6040516323b872dd60e01b81526001600160a01b038581166004830152306024830152604482018390527f000000000000000000000000000000000000000000000000000000000000000016906323b872dd90606401600060405180830381600087803b158015610bb057600080fd5b505af1158015610bc4573d6000803e3d6000fd5b505050600082815260026020908152604080832080546001600160a01b0319166001600160a01b038a16908117909155600383528184204290819055600490935281842092909255518493509091907fddf252ad1be2c89b69c2b068fc378daa952ba7f163c4a11628f55a4df523b3ef908290a45080610c43816117a2565b915050610ae5565b610c55828261087b565b6107da57610c6d816001600160a01b0316601461118f565b610c7883602061118f565b604051602001610c8992919061181b565b60408051601f198184030181529082905262461bcd60e51b82526107c791600401611890565b6000805b8251811015610d71576000838281518110610cd057610cd06117bd565b60200260200101519050600460008281526020019081526020016000205460001480610d1657506000818152600260205260409020546001600160a01b03868116911614155b15610d345760405163574b16a760e11b815260040160405180910390fd5b610d41610845824261114b565b610d4b90846117d3565b600091825260046020526040909120429055915080610d69816117a2565b915050610cb3565b50604080516001600160a01b03858116602483015260448083018590528351808403909101815260649092018352602080830180516001600160e01b03166340c10f1960e01b17905283518085019094526015845274131bddcb5b195d995b081b5a5b9d0819985a5b1959605a1b90840152610e12927f0000000000000000000000000000000000000000000000000000000000000000909116919061132b565b50604080516001600160a01b0385168152602081018390527ff6334794522b9db534a812aaae1af828a2e96aac68473b58e36d7d0bfd67477b910160405180910390a1505050565b610e64828261087b565b6107da576000828152602081815260408083206001600160a01b03851684529091529020805460ff19166001179055610e9a3390565b6001600160a01b0316816001600160a01b0316837f2f8788117e7eff1d82e926ec794901d17c78024a50270940304540a733656f0d60405160405180910390a45050565b610ee8828261087b565b156107da576000828152602081815260408083206001600160a01b0385168085529252808320805460ff1916905551339285917ff6391f5c32d9c69d2a47ea670b442974b53935d1edc7fd64eb21e047a839171b9190a45050565b80516001600160a01b03831660009081526001602052604081208054909190610f6d9084906118c3565b9091555060009050805b8251811015610d71576000838281518110610f9457610f946117bd565b60200260200101519050600460008281526020019081526020016000205460001480610fda57506000818152600260205260409020546001600160a01b03868116911614155b15610ff85760405163574b16a760e11b815260040160405180910390fd5b6040516323b872dd60e01b81523060048201526001600160a01b038681166024830152604482018390527f000000000000000000000000000000000000000000000000000000000000000016906323b872dd90606401600060405180830381600087803b15801561106857600080fd5b505af115801561107c573d6000803e3d6000fd5b505050600082815260026020526040812080546001600160a01b031916905590506110a7824261114b565b60008381526003602090815260408083208390556004825280832083905560059091529020549091508111156110e95760008281526005602052604090208190555b60405182906000906001600160a01b038916907fddf252ad1be2c89b69c2b068fc378daa952ba7f163c4a11628f55a4df523b3ef908390a461112a8161117f565b61113490856117d3565b935050508080611143906117a2565b915050610f77565b60008281526004602052604081205461116657506000610466565b600083815260046020526040902054610aab90836118c3565b60006006548261046691906118da565b6060600061119e8360026118da565b6111a99060026117d3565b67ffffffffffffffff8111156111c1576111c16114e6565b6040519080825280601f01601f1916602001820160405280156111eb576020820181803683370190505b509050600360fc1b81600081518110611206576112066117bd565b60200101906001600160f81b031916908160001a905350600f60fb1b81600181518110611235576112356117bd565b60200101906001600160f81b031916908160001a90535060006112598460026118da565b6112649060016117d3565b90505b60018111156112dc576f181899199a1a9b1b9c1cb0b131b232b360811b85600f1660108110611298576112986117bd565b1a60f81b8282815181106112ae576112ae6117bd565b60200101906001600160f81b031916908160001a90535060049490941c936112d5816118f9565b9050611267565b508315610aab5760405162461bcd60e51b815260206004820181905260248201527f537472696e67733a20686578206c656e67746820696e73756666696369656e7460448201526064016107c7565b606061133a8484600085611342565b949350505050565b6060824710156113a35760405162461bcd60e51b815260206004820152602660248201527f416464726573733a20696e73756666696369656e742062616c616e636520666f6044820152651c8818d85b1b60d21b60648201526084016107c7565b843b6113f15760405162461bcd60e51b815260206004820152601d60248201527f416464726573733a2063616c6c20746f206e6f6e2d636f6e747261637400000060448201526064016107c7565b600080866001600160a01b0316858760405161140d9190611910565b60006040518083038185875af1925050503d806000811461144a576040519150601f19603f3d011682016040523d82523d6000602084013e61144f565b606091505b509150915061145f82828661146a565b979650505050505050565b60608315611479575081610aab565b8251156114895782518084602001fd5b8160405162461bcd60e51b81526004016107c79190611890565b6000602082840312156114b557600080fd5b81356001600160e01b031981168114610aab57600080fd5b6000602082840312156114df57600080fd5b5035919050565b634e487b7160e01b600052604160045260246000fd5b600082601f83011261150d57600080fd5b8135602067ffffffffffffffff8083111561152a5761152a6114e6565b8260051b604051601f19603f8301168101818110848211171561154f5761154f6114e6565b60405293845285810183019383810192508785111561156d57600080fd5b83870191505b8482101561145f57813583529183019190830190611573565b60006020828403121561159e57600080fd5b813567ffffffffffffffff8111156115b557600080fd5b61133a848285016114fc565b6001600160a01b038116811461047657600080fd5b6000602082840312156115e857600080fd5b8135610aab816115c1565b6020808252825182820181905260009190848201906040850190845b8181101561162b5783518352928401929184019160010161160f565b50909695505050505050565b60008060008060006080868803121561164f57600080fd5b853561165a816115c1565b9450602086013561166a816115c1565b935060408601359250606086013567ffffffffffffffff8082111561168e57600080fd5b818801915088601f8301126116a257600080fd5b8135818111156116b157600080fd5b8960208285010111156116c357600080fd5b9699959850939650602001949392505050565b600080604083850312156116e957600080fd5b82356116f4816115c1565b9150602083013567ffffffffffffffff81111561171057600080fd5b61171c858286016114fc565b9150509250929050565b6000806040838503121561173957600080fd5b82359150602083013561174b816115c1565b809150509250929050565b60006020828403121561176857600080fd5b5051919050565b60006020828403121561178157600080fd5b8151610aab816115c1565b634e487b7160e01b600052601160045260246000fd5b60006000198214156117b6576117b661178c565b5060010190565b634e487b7160e01b600052603260045260246000fd5b600082198211156117e6576117e661178c565b500190565b60005b838110156118065781810151838201526020016117ee565b83811115611815576000848401525b50505050565b7f416363657373436f6e74726f6c3a206163636f756e74200000000000000000008152600083516118538160178501602088016117eb565b7001034b99036b4b9b9b4b733903937b6329607d1b60179184019182015283516118848160288401602088016117eb565b01602801949350505050565b60208152600082518060208401526118af8160408501602087016117eb565b601f01601f19169190910160400192915050565b6000828210156118d5576118d561178c565b500390565b60008160001904831182151516156118f4576118f461178c565b500290565b6000816119085761190861178c565b506000190190565b600082516119228184602087016117eb565b919091019291505056fea2646970667358221220363cbc69d065dc8811349c3d0361a08497f189aef3542ffaba21a6948cd8f1f064736f6c63430008090033",
  "linkReferences": {},
  "deployedLinkReferences": {}
}