{
  "_format": "hh-sol-artifact-1",
  "contractName": "ERC721Staking",
  "sourceName": "contracts/ERC721Staking.sol",
  "abi": [
    {
      "inputs": [
        {
          "internalType": "contract IERC721TokenURI",
          "name": "nft",
          "type": "address"
        },
        {
          "internalType": "contract IERC20Mintable",
          "name": "token",
          "type": "address"
        },
        {
          "internalType": "address",
          "name": "admin",
          "type": "address"
        }
      ],
      "stateMutability": "nonpayable",
      "type": "constructor"
    },
    {
      "inputs": [],
      "name": "InvalidCall",
      "type": "error"
    },
    {
      "anonymous": false,
      "inputs": [
        {
          "indexed": false,
          "internalType": "address",
          "name": "owner",
          "type": "address"
        },
        {
          "indexed": false,
          "internalType": "uint256",
          "name": "amount",
          "type": "uint256"
        }
      ],
      "name": "Release",
      "type": "event"
    },
    {
      "anonymous": false,
      "inputs": [
        {
          "indexed": true,
          "internalType": "bytes32",
          "name": "role",
          "type": "bytes32"
        },
        {
          "indexed": true,
          "internalType": "bytes32",
          "name": "previousAdminRole",
          "type": "bytes32"
        },
        {
          "indexed": true,
          "internalType": "bytes32",
          "name": "newAdminRole",
          "type": "bytes32"
        }
      ],
      "name": "RoleAdminChanged",
      "type": "event"
    },
    {
      "anonymous": false,
      "inputs": [
        {
          "indexed": true,
          "internalType": "bytes32",
          "name": "role",
          "type": "bytes32"
        },
        {
          "indexed": true,
          "internalType": "address",
          "name": "account",
          "type": "address"
        },
        {
          "indexed": true,
          "internalType": "address",
          "name": "sender",
          "type": "address"
        }
      ],
      "name": "RoleGranted",
      "type": "event"
    },
    {
      "anonymous": false,
      "inputs": [
        {
          "indexed": true,
          "internalType": "bytes32",
          "name": "role",
          "type": "bytes32"
        },
        {
          "indexed": true,
          "internalType": "address",
          "name": "account",
          "type": "address"
        },
        {
          "indexed": true,
          "internalType": "address",
          "name": "sender",
          "type": "address"
        }
      ],
      "name": "RoleRevoked",
      "type": "event"
    },
    {
      "anonymous": false,
      "inputs": [
        {
          "indexed": true,
          "internalType": "address",
          "name": "from",
          "type": "address"
        },
        {
          "indexed": true,
          "internalType": "address",
          "name": "to",
          "type": "address"
        },
        {
          "indexed": true,
          "internalType": "uint256",
          "name": "tokenId",
          "type": "uint256"
        }
      ],
      "name": "Transfer",
      "type": "event"
    },
    {
      "inputs": [],
      "name": "DEFAULT_ADMIN_ROLE",
      "outputs": [
        {
          "internalType": "bytes32",
          "name": "",
          "type": "bytes32"
        }
      ],
      "stateMutability": "view",
      "type": "function"
    },
    {
      "inputs": [],
      "name": "NFT",
      "outputs": [
        {
          "internalType": "contract IERC721TokenURI",
          "name": "",
          "type": "address"
        }
      ],
      "stateMutability": "view",
      "type": "function"
    },
    {
      "inputs": [],
      "name": "TOKEN",
      "outputs": [
        {
          "internalType": "contract IERC20Mintable",
          "name": "",
          "type": "address"
        }
      ],
      "stateMutability": "view",
      "type": "function"
    },
    {
      "inputs": [
        {
          "internalType": "address",
          "name": "owner",
          "type": "address"
        }
      ],
      "name": "available",
      "outputs": [
        {
          "internalType": "uint256[]",
          "name": "",
          "type": "uint256[]"
        }
      ],
      "stateMutability": "view",
      "type": "function"
    },
    {
      "inputs": [
        {
          "internalType": "address",
          "name": "owner",
          "type": "address"
        }
      ],
      "name": "balanceOf",
      "outputs": [
        {
          "internalType": "uint256",
          "name": "balance",
          "type": "uint256"
        }
      ],
      "stateMutability": "view",
      "type": "function"
    },
    {
      "inputs": [
        {
          "internalType": "uint256",
          "name": "",
          "type": "uint256"
        }
      ],
      "name": "getApproved",
      "outputs": [
        {
          "internalType": "address",
          "name": "",
          "type": "address"
        }
      ],
      "stateMutability": "pure",
      "type": "function"
    },
    {
      "inputs": [
        {
          "internalType": "bytes32",
          "name": "role",
          "type": "bytes32"
        }
      ],
      "name": "getRoleAdmin",
      "outputs": [
        {
          "internalType": "bytes32",
          "name": "",
          "type": "bytes32"
        }
      ],
      "stateMutability": "view",
      "type": "function"
    },
    {
      "inputs": [
        {
          "internalType": "bytes32",
          "name": "role",
          "type": "bytes32"
        },
        {
          "internalType": "address",
          "name": "account",
          "type": "address"
        }
      ],
      "name": "grantRole",
      "outputs": [],
      "stateMutability": "nonpayable",
      "type": "function"
    },
    {
      "inputs": [
        {
          "internalType": "bytes32",
          "name": "role",
          "type": "bytes32"
        },
        {
          "internalType": "address",
          "name": "account",
          "type": "address"
        }
      ],
      "name": "hasRole",
      "outputs": [
        {
          "internalType": "bool",
          "name": "",
          "type": "bool"
        }
      ],
      "stateMutability": "view",
      "type": "function"
    },
    {
      "inputs": [
        {
          "internalType": "uint256",
          "name": "tokenId",
          "type": "uint256"
        }
      ],
      "name": "highestStakeTime",
      "outputs": [
        {
          "internalType": "uint256",
          "name": "",
          "type": "uint256"
        }
      ],
      "stateMutability": "view",
      "type": "function"
    },
    {
      "inputs": [
        {
          "internalType": "address",
          "name": "",
          "type": "address"
        },
        {
          "internalType": "address",
          "name": "",
          "type": "address"
        }
      ],
      "name": "isApprovedForAll",
      "outputs": [
        {
          "internalType": "bool",
          "name": "",
          "type": "bool"
        }
      ],
      "stateMutability": "pure",
      "type": "function"
    },
    {
      "inputs": [
        {
          "internalType": "uint256",
          "name": "tokenId",
          "type": "uint256"
        }
      ],
      "name": "lastReleased",
      "outputs": [
        {
          "internalType": "uint256",
          "name": "",
          "type": "uint256"
        }
      ],
      "stateMutability": "view",
      "type": "function"
    },
    {
      "inputs": [],
      "name": "name",
      "outputs": [
        {
          "internalType": "string",
          "name": "",
          "type": "string"
        }
      ],
      "stateMutability": "pure",
      "type": "function"
    },
    {
      "inputs": [
        {
          "internalType": "address",
          "name": "",
          "type": "address"
        },
        {
          "internalType": "address",
          "name": "",
          "type": "address"
        },
        {
          "internalType": "uint256",
          "name": "",
          "type": "uint256"
        },
        {
          "internalType": "bytes",
          "name": "",
          "type": "bytes"
        }
      ],
      "name": "onERC721Received",
      "outputs": [
        {
          "internalType": "bytes4",
          "name": "",
          "type": "bytes4"
        }
      ],
      "stateMutability": "pure",
      "type": "function"
    },
    {
      "inputs": [
        {
          "internalType": "uint256",
          "name": "tokenId",
          "type": "uint256"
        }
      ],
      "name": "ownerOf",
      "outputs": [
        {
          "internalType": "address",
          "name": "owner",
          "type": "address"
        }
      ],
      "stateMutability": "view",
      "type": "function"
    },
    {
      "inputs": [
        {
          "internalType": "address",
          "name": "staker",
          "type": "address"
        },
        {
          "internalType": "uint256[]",
          "name": "tokenIds",
          "type": "uint256[]"
        }
      ],
      "name": "release",
      "outputs": [],
      "stateMutability": "nonpayable",
      "type": "function"
    },
    {
      "inputs": [
        {
          "internalType": "uint256[]",
          "name": "tokenIds",
          "type": "uint256[]"
        }
      ],
      "name": "release",
      "outputs": [],
      "stateMutability": "nonpayable",
      "type": "function"
    },
    {
      "inputs": [
        {
          "internalType": "uint256",
          "name": "tokenId",
          "type": "uint256"
        }
      ],
      "name": "releaseable",
      "outputs": [
        {
          "internalType": "uint256",
          "name": "",
          "type": "uint256"
        }
      ],
      "stateMutability": "view",
      "type": "function"
    },
    {
      "inputs": [
        {
          "internalType": "bytes32",
          "name": "role",
          "type": "bytes32"
        },
        {
          "internalType": "address",
          "name": "account",
          "type": "address"
        }
      ],
      "name": "renounceRole",
      "outputs": [],
      "stateMutability": "nonpayable",
      "type": "function"
    },
    {
      "inputs": [
        {
          "internalType": "bytes32",
          "name": "role",
          "type": "bytes32"
        },
        {
          "internalType": "address",
          "name": "account",
          "type": "address"
        }
      ],
      "name": "revokeRole",
      "outputs": [],
      "stateMutability": "nonpayable",
      "type": "function"
    },
    {
      "inputs": [
        {
          "internalType": "uint256[]",
          "name": "tokenIds",
          "type": "uint256[]"
        }
      ],
      "name": "stake",
      "outputs": [],
      "stateMutability": "nonpayable",
      "type": "function"
    },
    {
      "inputs": [
        {
          "internalType": "address",
          "name": "staker",
          "type": "address"
        },
        {
          "internalType": "uint256[]",
          "name": "tokenIds",
          "type": "uint256[]"
        }
      ],
      "name": "stake",
      "outputs": [],
      "stateMutability": "nonpayable",
      "type": "function"
    },
    {
      "inputs": [
        {
          "internalType": "address",
          "name": "staker",
          "type": "address"
        }
      ],
      "name": "staked",
      "outputs": [
        {
          "internalType": "uint256[]",
          "name": "",
          "type": "uint256[]"
        }
      ],
      "stateMutability": "view",
      "type": "function"
    },
    {
      "inputs": [
        {
          "internalType": "uint256",
          "name": "tokenId",
          "type": "uint256"
        }
      ],
      "name": "stakedSince",
      "outputs": [
        {
          "internalType": "uint256",
          "name": "",
          "type": "uint256"
        }
      ],
      "stateMutability": "view",
      "type": "function"
    },
    {
      "inputs": [
        {
          "internalType": "bytes4",
          "name": "interfaceId",
          "type": "bytes4"
        }
      ],
      "name": "supportsInterface",
      "outputs": [
        {
          "internalType": "bool",
          "name": "",
          "type": "bool"
        }
      ],
      "stateMutability": "view",
      "type": "function"
    },
    {
      "inputs": [],
      "name": "symbol",
      "outputs": [
        {
          "internalType": "string",
          "name": "",
          "type": "string"
        }
      ],
      "stateMutability": "pure",
      "type": "function"
    },
    {
      "inputs": [
        {
          "internalType": "uint256",
          "name": "tokenId",
          "type": "uint256"
        }
      ],
      "name": "tokenURI",
      "outputs": [
        {
          "internalType": "string",
          "name": "",
          "type": "string"
        }
      ],
      "stateMutability": "view",
      "type": "function"
    },
    {
      "inputs": [
        {
          "internalType": "address",
          "name": "staker",
          "type": "address"
        },
        {
          "internalType": "uint256[]",
          "name": "tokenIds",
          "type": "uint256[]"
        }
      ],
      "name": "unstake",
      "outputs": [],
      "stateMutability": "nonpayable",
      "type": "function"
    },
    {
      "inputs": [
        {
          "internalType": "uint256[]",
          "name": "tokenIds",
          "type": "uint256[]"
        }
      ],
      "name": "unstake",
      "outputs": [],
      "stateMutability": "nonpayable",
      "type": "function"
    },
    {
      "inputs": [
        {
          "internalType": "uint256",
          "name": "rate",
          "type": "uint256"
        }
      ],
      "name": "updateRate",
      "outputs": [],
      "stateMutability": "nonpayable",
      "type": "function"
    }
  ],
  "bytecode": "0x60c0604052655af3107a40006006553480156200001b57600080fd5b5060405162001df638038062001df68339810160408190526200003e9162000130565b6001600160a01b03808416608052821660a0526200005e60008262000067565b50505062000184565b62000073828262000077565b5050565b6000828152602081815260408083206001600160a01b038516845290915290205460ff1662000073576000828152602081815260408083206001600160a01b03851684529091529020805460ff19166001179055620000d33390565b6001600160a01b0316816001600160a01b0316837f2f8788117e7eff1d82e926ec794901d17c78024a50270940304540a733656f0d60405160405180910390a45050565b6001600160a01b03811681146200012d57600080fd5b50565b6000806000606084860312156200014657600080fd5b8351620001538162000117565b6020850151909350620001668162000117565b6040850151909250620001798162000117565b809150509250925092565b60805160a051611c14620001e2600039600081816104280152610fc301526000818161040101528181610585015281816106390152818161070f015281816109b001528181610b2a01528181610d4601526111fe0152611c146000f3fe608060405234801561001057600080fd5b50600436106101da5760003560e01c806369ea177111610104578063a217fddf116100a2578063d547741f11610071578063d547741f146104dd578063e449f341146104f0578063e985e9c514610503578063f2a448671461051957600080fd5b8063a217fddf1461048f578063c87b56dd14610497578063c9a3911e146104aa578063ceedebe9146104bd57600080fd5b806382bfefc8116100de57806382bfefc81461042357806391d148541461044a57806395d89b411461045d57806398807d841461047c57600080fd5b806369ea1771146103c057806370a08231146103d35780637c0b8de2146103fc57600080fd5b806318ace4011161017c5780633e97394c1161014b5780633e97394c1461035e5780635dbe4756146103715780636352211e146103845780636582f4fa146103ad57600080fd5b806318ace40114610302578063248a9ca3146103155780632f2ff15d1461033857806336568abe1461034b57600080fd5b80630c58aa92116101b85780630c58aa92146102675780630fbf0a931461029557806310098ad5146102aa578063150b7a02146102ca57600080fd5b806301ffc9a7146101df57806306fdde0314610207578063081812fc1461023b575b600080fd5b6101f26101ed36600461167d565b61052c565b60405190151581526020015b60405180910390f35b60408051808201909152600f81526e0cd3185b99195c9cc814dd185ad959608a1b60208201525b6040516101fe91906116d7565b61024f61024936600461170a565b50600090565b6040516001600160a01b0390911681526020016101fe565b61028761027536600461170a565b60009081526004602052604090205490565b6040519081526020016101fe565b6102a86102a33660046117df565b610572565b005b6102bd6102b8366004611829565b61057f565b6040516101fe9190611846565b6102e96102d836600461188a565b630a85bd0160e11b95945050505050565b6040516001600160e01b031990911681526020016101fe565b6102a8610310366004611929565b610801565b61028761032336600461170a565b60009081526020819052604090206001015490565b6102a8610346366004611979565b61083b565b6102a8610359366004611979565b610861565b6102a861036c3660046117df565b6108e4565b6102a861037f366004611929565b6108ee565b61024f61039236600461170a565b6000908152600260205260409020546001600160a01b031690565b6102876103bb36600461170a565b610923565b6102a86103ce36600461170a565b610950565b6102876103e1366004611829565b6001600160a01b031660009081526001602052604090205490565b61024f7f000000000000000000000000000000000000000000000000000000000000000081565b61024f7f000000000000000000000000000000000000000000000000000000000000000081565b6101f2610458366004611979565b610981565b604080518082019091526003815262334c5360e81b602082015261022e565b6102bd61048a366004611829565b6109aa565b610287600081565b61022e6104a536600461170a565b610b11565b6102a86104b8366004611929565b610bb0565b6102876104cb36600461170a565b60009081526003602052604090205490565b6102a86104eb366004611979565b610be5565b6102a86104fe3660046117df565b610c0b565b6101f26105113660046119a9565b600092915050565b61028761052736600461170a565b610c15565b60006380ac58cd60e01b6001600160e01b03198316148061055d57506001600160e01b03198216635b5e139f60e01b145b8061056c575061056c82610c57565b92915050565b61057c3382610c8c565b50565b606060007f00000000000000000000000000000000000000000000000000000000000000006001600160a01b03166318160ddd6040518163ffffffff1660e01b815260040160206040518083038186803b1580156105dc57600080fd5b505afa1580156105f0573d6000803e3d6000fd5b505050506040513d601f19601f8201168201806040525081019061061491906119d7565b6040516370a0823160e01b81526001600160a01b0385811660048301529192506000917f000000000000000000000000000000000000000000000000000000000000000016906370a082319060240160206040518083038186803b15801561067b57600080fd5b505afa15801561068f573d6000803e3d6000fd5b505050506040513d601f19601f820116820180604052508101906106b391906119d7565b67ffffffffffffffff8111156106cb576106cb611723565b6040519080825280602002602001820160405280156106f4578160200160208202803683370190505b509050600060015b8381116107f757856001600160a01b03167f00000000000000000000000000000000000000000000000000000000000000006001600160a01b0316636352211e836040518263ffffffff1660e01b815260040161075b91815260200190565b60206040518083038186803b15801561077357600080fd5b505afa158015610787573d6000803e3d6000fd5b505050506040513d601f19601f820116820180604052508101906107ab91906119f0565b6001600160a01b031614156107e5578083836107c681611a23565b9450815181106107d8576107d8611a3e565b6020026020010181815250505b806107ef81611a23565b9150506106fc565b5090949350505050565b7fb9e206fa2af7ee1331b72ce58b6d938ac810ce9b5cdb65d35ab723fd67badf9e61082c8133610e25565b6108368383610e89565b505050565b6000828152602081905260409020600101546108578133610e25565b6108368383611034565b6001600160a01b03811633146108d65760405162461bcd60e51b815260206004820152602f60248201527f416363657373436f6e74726f6c3a2063616e206f6e6c792072656e6f756e636560448201526e103937b632b9903337b91039b2b63360891b60648201526084015b60405180910390fd5b6108e082826110b8565b5050565b61057c3382610e89565b7fb9e206fa2af7ee1331b72ce58b6d938ac810ce9b5cdb65d35ab723fd67badf9e6109198133610e25565b610836838361111d565b60008181526004602052604081205461093e57506000919050565b61056c61094b8342611325565b611359565b7f850d585eb7f024ccee5e68e55f2c26cc72e1e6ee456acf62135757a5eb9d4a1061097b8133610e25565b50600655565b6000918252602082815260408084206001600160a01b0393909316845291905290205460ff1690565b606060007f00000000000000000000000000000000000000000000000000000000000000006001600160a01b03166318160ddd6040518163ffffffff1660e01b815260040160206040518083038186803b158015610a0757600080fd5b505afa158015610a1b573d6000803e3d6000fd5b505050506040513d601f19601f82011682018060405250810190610a3f91906119d7565b90506000610a62846001600160a01b031660009081526001602052604090205490565b67ffffffffffffffff811115610a7a57610a7a611723565b604051908082528060200260200182016040528015610aa3578160200160208202803683370190505b509050600060015b8381116107f7576000818152600260205260409020546001600160a01b0387811691161415610aff57808383610ae081611a23565b945081518110610af257610af2611a3e565b6020026020010181815250505b80610b0981611a23565b915050610aab565b60405163c87b56dd60e01b8152600481018290526060907f00000000000000000000000000000000000000000000000000000000000000006001600160a01b03169063c87b56dd9060240160006040518083038186803b158015610b7457600080fd5b505afa158015610b88573d6000803e3d6000fd5b505050506040513d6000823e601f3d908101601f1916820160405261056c9190810190611a54565b7fb9e206fa2af7ee1331b72ce58b6d938ac810ce9b5cdb65d35ab723fd67badf9e610bdb8133610e25565b6108368383610c8c565b600082815260208190526040902060010154610c018133610e25565b61083683836110b8565b61057c338261111d565b600080610c228342611325565b6000848152600560205260409020549091508111610c4e57600083815260056020526040902054610c50565b805b9392505050565b60006001600160e01b03198216637965db0b60e01b148061056c57506301ffc9a760e01b6001600160e01b031983161461056c565b80516001600160a01b03831660009081526001602052604081208054909190610cb6908490611ae8565b90915550600090505b8151811015610836576000828281518110610cdc57610cdc611a3e565b602002602001015190506004600082815260200190815260200160002054600014610d1a5760405163574b16a760e11b815260040160405180910390fd5b6040516323b872dd60e01b81526001600160a01b038581166004830152306024830152604482018390527f000000000000000000000000000000000000000000000000000000000000000016906323b872dd90606401600060405180830381600087803b158015610d8a57600080fd5b505af1158015610d9e573d6000803e3d6000fd5b505050600082815260026020908152604080832080546001600160a01b0319166001600160a01b038a16908117909155600383528184204290819055600490935281842092909255518493509091907fddf252ad1be2c89b69c2b068fc378daa952ba7f163c4a11628f55a4df523b3ef908290a45080610e1d81611a23565b915050610cbf565b610e2f8282610981565b6108e057610e47816001600160a01b03166014611369565b610e52836020611369565b604051602001610e63929190611b00565b60408051601f198184030181529082905262461bcd60e51b82526108cd916004016116d7565b6000805b8251811015610f4b576000838281518110610eaa57610eaa611a3e565b60200260200101519050600460008281526020019081526020016000205460001480610ef057506000818152600260205260409020546001600160a01b03868116911614155b15610f0e5760405163574b16a760e11b815260040160405180910390fd5b610f1b61094b8242611325565b610f259084611ae8565b600091825260046020526040909120429055915080610f4381611a23565b915050610e8d565b50604080516001600160a01b03858116602483015260448083018590528351808403909101815260649092018352602080830180516001600160e01b03166340c10f1960e01b17905283518085019094526015845274131bddcb5b195d995b081b5a5b9d0819985a5b1959605a1b90840152610fec927f00000000000000000000000000000000000000000000000000000000000000009091169190611505565b50604080516001600160a01b0385168152602081018390527ff6334794522b9db534a812aaae1af828a2e96aac68473b58e36d7d0bfd67477b910160405180910390a1505050565b61103e8282610981565b6108e0576000828152602081815260408083206001600160a01b03851684529091529020805460ff191660011790556110743390565b6001600160a01b0316816001600160a01b0316837f2f8788117e7eff1d82e926ec794901d17c78024a50270940304540a733656f0d60405160405180910390a45050565b6110c28282610981565b156108e0576000828152602081815260408083206001600160a01b0385168085529252808320805460ff1916905551339285917ff6391f5c32d9c69d2a47ea670b442974b53935d1edc7fd64eb21e047a839171b9190a45050565b80516001600160a01b03831660009081526001602052604081208054909190611147908490611b75565b9091555060009050805b8251811015610f4b57600083828151811061116e5761116e611a3e565b602002602001015190506004600082815260200190815260200160002054600014806111b457506000818152600260205260409020546001600160a01b03868116911614155b156111d25760405163574b16a760e11b815260040160405180910390fd5b6040516323b872dd60e01b81523060048201526001600160a01b038681166024830152604482018390527f000000000000000000000000000000000000000000000000000000000000000016906323b872dd90606401600060405180830381600087803b15801561124257600080fd5b505af1158015611256573d6000803e3d6000fd5b505050600082815260026020526040812080546001600160a01b031916905590506112818242611325565b60008381526003602090815260408083208390556004825280832083905560059091529020549091508111156112c35760008281526005602052604090208190555b60405182906000906001600160a01b038916907fddf252ad1be2c89b69c2b068fc378daa952ba7f163c4a11628f55a4df523b3ef908390a461130481611359565b61130e9085611ae8565b93505050808061131d90611a23565b915050611151565b6000828152600460205260408120546113405750600061056c565b600083815260046020526040902054610c509083611b75565b60006006548261056c9190611b8c565b60606000611378836002611b8c565b611383906002611ae8565b67ffffffffffffffff81111561139b5761139b611723565b6040519080825280601f01601f1916602001820160405280156113c5576020820181803683370190505b509050600360fc1b816000815181106113e0576113e0611a3e565b60200101906001600160f81b031916908160001a905350600f60fb1b8160018151811061140f5761140f611a3e565b60200101906001600160f81b031916908160001a9053506000611433846002611b8c565b61143e906001611ae8565b90505b60018111156114b6576f181899199a1a9b1b9c1cb0b131b232b360811b85600f166010811061147257611472611a3e565b1a60f81b82828151811061148857611488611a3e565b60200101906001600160f81b031916908160001a90535060049490941c936114af81611bab565b9050611441565b508315610c505760405162461bcd60e51b815260206004820181905260248201527f537472696e67733a20686578206c656e67746820696e73756666696369656e7460448201526064016108cd565b6060611514848460008561151c565b949350505050565b60608247101561157d5760405162461bcd60e51b815260206004820152602660248201527f416464726573733a20696e73756666696369656e742062616c616e636520666f6044820152651c8818d85b1b60d21b60648201526084016108cd565b843b6115cb5760405162461bcd60e51b815260206004820152601d60248201527f416464726573733a2063616c6c20746f206e6f6e2d636f6e747261637400000060448201526064016108cd565b600080866001600160a01b031685876040516115e79190611bc2565b60006040518083038185875af1925050503d8060008114611624576040519150601f19603f3d011682016040523d82523d6000602084013e611629565b606091505b5091509150611639828286611644565b979650505050505050565b60608315611653575081610c50565b8251156116635782518084602001fd5b8160405162461bcd60e51b81526004016108cd91906116d7565b60006020828403121561168f57600080fd5b81356001600160e01b031981168114610c5057600080fd5b60005b838110156116c25781810151838201526020016116aa565b838111156116d1576000848401525b50505050565b60208152600082518060208401526116f68160408501602087016116a7565b601f01601f19169190910160400192915050565b60006020828403121561171c57600080fd5b5035919050565b634e487b7160e01b600052604160045260246000fd5b604051601f8201601f1916810167ffffffffffffffff8111828210171561176257611762611723565b604052919050565b600082601f83011261177b57600080fd5b8135602067ffffffffffffffff82111561179757611797611723565b8160051b6117a6828201611739565b92835284810182019282810190878511156117c057600080fd5b83870192505b84831015611639578235825291830191908301906117c6565b6000602082840312156117f157600080fd5b813567ffffffffffffffff81111561180857600080fd5b6115148482850161176a565b6001600160a01b038116811461057c57600080fd5b60006020828403121561183b57600080fd5b8135610c5081611814565b6020808252825182820181905260009190848201906040850190845b8181101561187e57835183529284019291840191600101611862565b50909695505050505050565b6000806000806000608086880312156118a257600080fd5b85356118ad81611814565b945060208601356118bd81611814565b935060408601359250606086013567ffffffffffffffff808211156118e157600080fd5b818801915088601f8301126118f557600080fd5b81358181111561190457600080fd5b89602082850101111561191657600080fd5b9699959850939650602001949392505050565b6000806040838503121561193c57600080fd5b823561194781611814565b9150602083013567ffffffffffffffff81111561196357600080fd5b61196f8582860161176a565b9150509250929050565b6000806040838503121561198c57600080fd5b82359150602083013561199e81611814565b809150509250929050565b600080604083850312156119bc57600080fd5b82356119c781611814565b9150602083013561199e81611814565b6000602082840312156119e957600080fd5b5051919050565b600060208284031215611a0257600080fd5b8151610c5081611814565b634e487b7160e01b600052601160045260246000fd5b6000600019821415611a3757611a37611a0d565b5060010190565b634e487b7160e01b600052603260045260246000fd5b600060208284031215611a6657600080fd5b815167ffffffffffffffff80821115611a7e57600080fd5b818401915084601f830112611a9257600080fd5b815181811115611aa457611aa4611723565b611ab7601f8201601f1916602001611739565b9150808252856020828501011115611ace57600080fd5b611adf8160208401602086016116a7565b50949350505050565b60008219821115611afb57611afb611a0d565b500190565b7f416363657373436f6e74726f6c3a206163636f756e7420000000000000000000815260008351611b388160178501602088016116a7565b7001034b99036b4b9b9b4b733903937b6329607d1b6017918401918201528351611b698160288401602088016116a7565b01602801949350505050565b600082821015611b8757611b87611a0d565b500390565b6000816000190483118215151615611ba657611ba6611a0d565b500290565b600081611bba57611bba611a0d565b506000190190565b60008251611bd48184602087016116a7565b919091019291505056fea264697066735822122062eccf2e8f11c0f45238e32169569c12facb7660a8db709cd1c114de1311566a64736f6c63430008090033",
  "linkReferences": {},
  "deployedLinkReferences": {}
}